:020000040800F2
:10000000F00B002081040008850200088702000828
:100010008B0200088F020008930200080000000015
:10002000000000000000000000000000970200082F
:1000300099020008000000009B0200089D020008D1
:100040009B0400089B0400089B0400089B04000814
:100050009B0400089B040008692900083F29000848
:100060009B0400089B040008D52900089B04000895
:100070009B0400089B0400089B0400089B040008E4
:100080009B0400089B0400089B0400089B040008D4
:100090009B0400089B0400089B0400089B040008C4
:1000A0009B0400089B0400089B0400089B040008B4
:1000B0000B260008B33A0008E52400089B0400085A
:1000C0009B0400089B0400089B0400089B04000894
:1000D0009B0400089B040008E32100089B0400081F
:1000E0009D2900089B0400089B0400089B0400084D
:1000F0009B0400089B0400089B0400089B04000864
:100100009B0400089B0400089B0400089B04000853
:100110009B0400089B0400089B0400089B04000843
:100120009B0400089B0400089B0400089B04000833
:1001300000F002F800F041F80AA090E8000C8244B8
:100140008344AAF10107DA4501D100F036F8AFF295
:10015000090EBAE80F0013F0010F18BFFB1A43F0A5
:10016000010318471473000034730000103A24BFD1
:1001700078C878C1FAD8520724BF30C830C144BF0C
:1001800004680C607047000000230024002500264E
:10019000103A28BF78C1FBD8520728BF30C148BFEA
:1001A0000B607047642903F02385002070471FB55A
:1001B00003F06FFD1FBD10B510BD03F05BFE1146CF
:1001C000FFF7F5FF00F022F803F079FE03B4FFF724
:1001D000F2FF03BC01F06CFF0B49D1F800C04A6884
:1001E0005CF8043B1068184442F8040B8C4528BFA7
:1001F000A1F1DC0C8A4228BFA1F1DC02C1F800C0E9
:100200004A6020F0004070478405002001F0E6FEBF
:1002100003F064F802F0B8F8002141F61F4002F044
:10022000C7F802F013F902F033FB03F028FA4FF499
:10023000165001F08AFF41F61F41632002F08CF94D
:1002400011E00948036809480021026808A003F08A
:100250008FFC01200A49087003F068FA00BF0848C3
:1002600000780028FBD1ECE7080000200400002003
:100270007B4225643A25643A25647D240000000011
:1002800062000020704700BFFEE700BFFEE700BF2E
:10029000FEE700BFFEE770477047704770470000F9
:1002A0000CB50020019000906C48006840F480304C
:1002B0006A49086000BF6948006800F40030009097
:1002C0000198401C0190009818B90198B0F5A06FF2
:1002D000F1D16248006800F4003010B101200090B4
:1002E00001E0002000900098012843D15C4800689C
:1002F00040F010005A4908600846006820F00300EA
:1003000008600846006840F00200086053484068F2
:10031000524948600846406848600846406840F4D2
:10032000806048600846406820F47C1048600846B9
:10033000406840F4E81048600846006840F080706B
:10034000086000BF4548006800F000700028F9D040
:100350004248406820F00300404948600846406831
:1003600040F00200486000BF3C48406800F00C00CC
:100370000828F9D10CBD10B5FFF792FF10BD10B5DC
:100380003648006840F0010034490860084640687B
:1003900034490840314948600846006832490840FD
:1003A0002E4908600846006820F48020086008464E
:1003B000406820F4FE0048604FF41F008860FFF79B
:1003C000DAFF4FF000602949086010BD10B5002128
:1003D00000200022214B5B6803F00C0121B10429AD
:1003E00006D0082928D107E0214B224C236027E0C2
:1003F0001F4B204C236023E0184B5B6803F4701004
:10040000164B5B6803F48032022303EB904022B961
:10041000194B4343174C23600DE0104B5B6803F40A
:10042000003323B1144B4343124C236003E0104BC1
:100430004343104C236003E00D4B0E4C236000BF80
:1004400000BF064B5B68C3F303130C4CE15C094B24
:100450001B68CB40074C236010BD00000010024019
:10046000002002400000FFF8FFFFF6FE08ED00E06C
:1004700000127A002400002000093D00280000201E
:100480000948804709480047FEE7FEE7FEE7FEE728
:10049000FEE7FEE7FEE7FEE7FEE7FEE70448054964
:1004A000054A064B704700007F0300083101000831
:1004B000F0050020F00B0020F0070020F0070020DE
:1004C00031490143314A1160704770B50021002362
:1004D0000F22C47804B32D4C246804F4E064C4F5FE
:1004E000E064210AC1F10403CA40447804FA03F12C
:1004F0008478144021430901254C0678A1550478DD
:1005000004F01F050124AC4005786D11AD0005F124
:10051000E025C5F8004109E0047804F01F05012436
:10052000AC401C4D0678761145F8264070BD1A4A3D
:100530000A400243154B1B1F1A60704739B1134A1A
:10054000121D12680243114B1B1D1A6006E00F4A70
:10055000121D126882430D4B1B1D1A607047042840
:1005600008D14FF0E021096941F004014FF0E02289
:10057000116107E04FF0E021096921F004014FF01B
:10058000E0221161704700000000FA050CED00E068
:1005900000E400E080E100E080FFFF1F002044490C
:1005A0000860091D0860091D0860091D08604148B0
:1005B0003F4914310860704700213D498279002A83
:1005C0003AD00A46126803689A430B461A600A1D1D
:1005D000126803689A430B1D1A60027911440A6875
:1005E00003681A430A60324A0832126803689A4361
:1005F0002F4B08331A601A1D126803689A432C4B5C
:100600000C331A604279102A0ED11A1F126803683F
:100610001A43274B08331A601A1D126803681A43DD
:10062000234B0C331A600DE02149427911440A68CA
:1006300003681A430A6005E0027911440A680368F6
:100640009A430A6070470021016001710C214171D9
:100650000021817170471649103109680143144A1D
:1006600010321160704701460020114A143212689E
:100670000A400AB1012000E0002070470C49143103
:1006800008607047014600200022094B1B6803EAFE
:100690000102074B14331B680B4013B10AB1012050
:1006A00000E00020704702491431086070470000E4
:1006B00000040140FFFF0F0010B50446CC488442FF
:1006C00008D10121042000F02DFB0021042000F0BE
:1006D00029FB46E0C748844208D10121082000F0E8
:1006E00021FB0021082000F01DFB3AE0C2488442B3
:1006F00008D10121102000F015FB0021102000F08E
:1007000011FB2EE0BD48844208D10121202000F0D9
:1007100009FB0021202000F005FB22E0B8488442BC
:1007200008D10121402000F0FDFA0021402000F016
:10073000F9FA16E0B348844208D10121802000F084
:10074000F1FA0021802000F0EDFA0AE0AE48844280
:1007500007D10121801500F0E5FA0021A01500F075
:10076000E1FA10BD10B50121084600F0DBFA0021C6
:10077000012000F0D7FA10BD2DE9F0410246002516
:100780000026002000230024002791F803C00CF06D
:100790000F0591F803C00CF0100CBCF1000F03D052
:1007A00091F802C04CEA050591F800C0BCF1000FB9
:1007B00031D0146800202BE04FF0010C0CFA00F34C
:1007C000B1F800C00CEA03069E4220D183004FF02E
:1007D0000F0C0CFA03F7BC4305FA03FC4CEA0404C3
:1007E00091F803C0BCF1280F06D14FF0010C0CFAB0
:1007F00000FCC2F814C00AE091F803C0BCF1480F35
:1008000005D14FF0010C0CFA00FCC2F810C0401CDE
:100810000828D1D31460B1F800C0BCF1FF0F34DD5B
:10082000546800202EE000F1080C4FF0010808FA8F
:100830000CF3B1F800C00CEA03069E4221D18300FC
:100840004FF00F0C0CFA03F7BC4305FA03FC4CEA1B
:10085000040491F803C0BCF1280F05D100F1080C85
:1008600008FA0CF8C2F8148091F803C0BCF1480FE4
:1008700007D100F1080C4FF0010808FA0CF8C2F893
:100880001080401C0828CED35460BDE8F0814FF69C
:10089000FF710180022181700421C17070470246FE
:1008A000002093680B400BB1012000E0002070474E
:1008B0000146886880B2704702460020D3680B402A
:1008C0000BB1012000E0002070470146C86880B2EB
:1008D000704701617047416170470AB1016100E0F2
:1008E00041617047C16070474FF480320A438261B2
:1008F0008161826182698269704702460020434BB0
:1009000018684FF68073184040EA021008433F4BC6
:10091000186070473E49C8617047F0B50A46002329
:1009200000240021002500F00046B6F1004F02D15E
:10093000364EF16901E0354E7168C0F3034583B26C
:1009400000F44016B6F5401F08D121F070612F4E1B
:10095000766826F070662D4F7E6012E000F48016F7
:10096000B6F5801F06D1032606FA05F4A14341F02F
:10097000706106E0460D360103FA06F6B14341F018
:10098000706122B1460D360103FA06F6314300F0DC
:100990000046B6F1004F02D11C4EF16101E01B4E42
:1009A0007160F0BD30B500228B071C0F0F2303FAD6
:1009B00004F2164B08338C1053F824309343134C35
:1009C00008348D1044F8253023468C1053F8243019
:1009D0008C07240F00FA04F423430C4C08348D10C8
:1009E00044F8253030BD0A49DC310860704700000A
:1009F00000080140000C01400010014000140140BB
:100A000000180140001C014000200140000001408E
:100A100000002042DF48006840F00100DD49086026
:100A200008464068DC490840DA49486008460068E2
:100A3000DA490840D74908600846006820F4802059
:100A400008600846406820F4FE0048604FF41F002C
:100A500088607047CF49096821F48031CD4A116020
:100A60001146096821F480211160B0F5803F03D060
:100A7000B0F5802F0ED106E0C649096841F48031F7
:100A8000C44A116007E0C349096841F4A021C14A82
:100A9000116000E000BF00BF704710B501460022A2
:100AA000002300204A11012A02D1BA4C236806E033
:100AB000022A02D1B74C236A01E0B64C636A01F006
:100AC0001F02012494401C400CB1012000E00020D2
:100AD00010BD38B5002000900024002500BF312053
:100AE000FFF7DBFF05460098401C00900098B0F52A
:100AF000A06F01D0002DF2D03120FFF7CEFF08B15A
:100B0000012400E00024204638BD01460020A14A0F
:100B1000106820F0F80040EAC10010607047A0495A
:100B200008607047024600209A4B586820F47C10F9
:100B300042EA01031843974B58607047984908668A
:100B4000704701460020934A506820F00300084394
:100B5000506070478F48406800F00C0070470146B5
:100B600000208C4A506820F0F00008435060704725
:100B700001460020874A506820F4E0600843506036
:100B8000704701460020834A506820F4605040EAD4
:100B9000C1005060704729B17E4A527A02437D4BB2
:100BA0005A7204E07B4A527A82437A4B5A727047F7
:100BB0007B49D8310860704701460020754A50686B
:100BC00020F440400843506070470021714A2032B1
:100BD0001170704A82F82010012802D004280AD12E
:100BE00004E001216B4A2032117005E00521694AB9
:100BF0002032117000E000BF00BF704769490860F3
:100C000070476449096A0143624A11627047654945
:100C100044390860704730B50021002200240023C9
:100C20005C4D6D6805F00C0121B1042905D008293F
:100C300023D105E05C4D056022E05B4D05601FE0BF
:100C4000544D6D6805F47012524D6D6805F4803492
:100C5000022505EB92421CB9544D554305600BE04B
:100C60004C4D6D6805F400351DB1504D5543056080
:100C700002E04D4D5543056002E04B4D056000BF5D
:100C800000BF444D6D6805F0F0010909484D6B5CEB
:100C90000568DD4045603F4D6D6805F4E061090A77
:100CA000434D6B5C4568DD4085603A4D6D6805F4E9
:100CB0006051C90A3E4D6B5C4568DD40C560354DED
:100CC0006D6805F44041890B3A4D6B5CC568B5FB16
:100CD000F3F5056130BD29B12E4A526902432D4B0F
:100CE0005A6104E02B4A526982432A4B5A61704789
:100CF00029B1284A92690243264B9A6104E0254AA9
:100D000092698243234B9A61704729B1214AD26983
:100D10000243204BDA6104E01E4AD26982431D4B34
:100D2000DA61704729B11B4AD2680243194BDA6075
:100D300004E0184AD2688243164BDA60704729B142
:100D4000144A12690243134B1A6104E0114A1269F2
:100D50008243104B1A61704712494039086070474E
:100D60000F49C86470470B49C87170470948406A09
:100D700040F0807007494862704701460020054AEC
:100D800092680A400AB1012000E000207047014942
:100D900088727047001002400000FFF8FFFFF6FE67
:100DA000000042428004424200127A0000093D00E5
:100DB000380000204800002010B50446FE48844258
:100DC00008D10121C014FFF7ADFF0021E014FFF7A7
:100DD000A9FFC4E0B4F1804F08D101210846FFF714
:100DE000AEFF00210120FFF7AAFFB8E0F3488442DC
:100DF00008D101210220FFF7A2FF00210220FFF706
:100E00009EFFACE0EE48844208D101210420FFF7A8
:100E100096FF00210420FFF792FFA0E0E9488442FA
:100E200008D101210820FFF78AFF00210820FFF7E1
:100E300086FF94E0E448844208D101211020FFF7A6
:100E40007EFF00211020FFF77AFF88E0DF48844210
:100E500008D101212020FFF772FF00212020FFF799
:100E60006EFF7CE0DA48844208D101214014FFF78C
:100E700059FF00216014FFF755FF70E0D548844208
:100E800009D10121C804FFF74DFF00214FF40020D4
:100E9000FFF748FF63E0D048844209D101210805EB
:100EA000FFF740FF00214FF48010FFF73BFF56E0B3
:100EB000CA48844209D101214805FFF733FF0021C8
:100EC0004FF40010FFF72EFF49E0C548844208D1D7
:100ED00001214020FFF733FF00214020FFF72FFFC3
:100EE0003DE0C048844208D101218020FFF727FF60
:100EF00000218020FFF723FF31E0BB48844208D166
:100F000001218015FFF71BFF0021A015FFF717FF38
:100F100025E0B648844209D101210804FFF702FF09
:100F200000214FF48030FFF7FDFE18E0B048844206
:100F300009D101214804FFF7F5FE00214FF40030EC
:100F4000FFF7F0FE0BE0AB48844208D10121880492
:100F5000FFF7E8FE00214FF48020FFF7E3FE10BD0D
:100F600000220288944B98420ED0994B98420BD0A5
:100F7000B0F1804F08D0914B984205D0904B9842E9
:100F800002D0904B984204D14FF68F731A404B8891
:100F90001A438D4B984207D08C4B984204D04FF6A1
:100FA000FF431A40CB881A4302808B8883850B88C5
:100FB0000385814B98420BD0854B984208D08B4BD0
:100FC000984205D08A4B984202D08A4B984201D170
:100FD0000B7A038601238382704770B500240022B8
:100FE0000023058C4FF6FE7635400584028C8388FD
:100FF000048B4FF68F752C40B51E2C400D882C436A
:10100000751E2A400D892A434D882A436A4DA842FD
:101010000BD06F4DA84208D0744DA84205D0744D36
:10102000A84202D0734DA84213D14FF6F7752A405B
:101030004D892A434FF6FB752A408D882A434FF687
:10104000FF652B404FF6FF552B408D892B43CD89F3
:101050002B4383800483CD888586028470BD70B560
:10106000002400220023058C4FF6EF7635400584DE
:10107000028C8388048B48F6FF752C404FF6FF45A1
:101080002C400D884FF6FF7606EA05252C434FF6D7
:10109000DF752A400D8906EA05152A434D8806EAC0
:1010A00005152A43444DA84202D0494DA8421DD1FE
:1010B0004FF67F752A404D894FF6FF7606EA0515F3
:1010C0002A434FF6BF752A408D8806EA05152A4344
:1010D0004FF6FF352B404FF2FF752B408D8906EA06
:1010E00085052B43CD8906EA85052B438380048340
:1010F000CD880587028470BD70B5002400220023CE
:10110000058C4FF6FF6635400584028C8388848BFE
:101110004FF68F752C404FF6FC752C400D882C43F4
:101120004FF6FF552A400D894FF6FF7606EA052552
:101130002A434D8806EA05252A431F4DA84202D0BE
:10114000234DA8421DD14FF2FF752A404D894FF61D
:10115000FF7606EA05252A434FF6FF352A408D889B
:1011600006EA05252A434EF6FF752B404DF6FF751E
:101170002B408D8906EA05152B43CD8906EA051516
:101180002B4383808483CD888587028470BD70B5AE
:10119000002200230024058C4EF6FF76354005849E
:1011A000038C8488828B48F6FF752A404FF6FF45F2
:1011B0002A400D8820E00000002C0140000400407F
:1011C00000080040000C00400010004000140040E7
:1011D00000340140004C01400050014000540140E7
:1011E00000180040001C004000200040004001406A
:1011F00000440140004801404FF6FF7606EA05250D
:101200002A434DF6FF752B400D8906EA05352B4321
:101210004D8806EA05352B43FA4DA84202D0FA4D17
:10122000A84208D14BF6FF752C408D894FF6FF760A
:1012300006EA85152C4384808283CD88A0F840502F
:10124000038470BD828B4FF2FF331A408283828BFE
:101250004FF6FF7303EA01231A4382837047F0B508
:101260000C461546002200210026078C4EF6FF7C16
:1012700007EA0C070784828B018C4FF6FF7707EA99
:10128000043640F6FF473A404FF6FF7707EA052756
:101290003A434FF6FF7707EA03373A43D94FB8424C
:1012A0000ED0D94FB8420BD0B0F1804F08D0D74FF5
:1012B000B84205D0D64FB84202D0D64FB84206D178
:1012C0004DF6FF77394046F48057394305E047F63D
:1012D000FF57394044F48057394382830184F0BD7D
:1012E000828B4FF6F3731A408283828B0A43828388
:1012F0007047F0B50C461546002200210026078CE9
:101300004FF6FF6C07EA0C070784828B018C4FF6BF
:10131000FF7707EA04264FF60C773A404FF6FF773F
:1013200007EA03172F433A43B64FB8420ED0B64FE1
:10133000B8420BD0B0F1804F08D0B44FB84205D0BE
:10134000B34FB84202D0B34FB84206D14FF6FF5761
:10135000394046F48077394305E04FF2FF57394072
:1013600044F48077394382830184F0BD028B4FF2CD
:10137000FF331A400283028B4FF6FF7303EA012307
:101380001A4302837047F0B50C461546002200212F
:101390000026078C4FF6EF7C07EA0C070784028BC8
:1013A000018C4FF6FF7707EA041640F6FF473A40F4
:1013B0004FF6FF7707EA03373A434FF6FF7707EA1E
:1013C00005273A438F4FB8420ED08F4FB8420BD00B
:1013D000B0F1804F08D08D4FB84205D08C4FB84245
:1013E00002D08C4FB84206D14FF6DF77394046F035
:1013F0001007394305E04FF65F77394044F0100796
:10140000394302830184F0BD028B4FF6F3731A4017
:101410000283028B0A4302837047F0B50C461546DF
:1014200000220021068C4FF6FE773E400684028B98
:10143000018C4FF60C7632407E1C06EA03162E43D2
:101440003243704EB0420ED06F4EB0420BD0B0F16E
:10145000804F08D06D4EB04205D06D4EB04202D0E4
:101460006C4EB04206D14FF6FD76314044F0010695
:10147000314305E04FF6F576314044F00106314343
:1014800002830184F0BD70B505460C465D48854277
:101490000ED05D4885420BD0B5F1804F08D05B4837
:1014A000854205D05A48854202D05A48854200D12B
:1014B00000E000BF208850B92389A28861882846AF
:1014C000FFF7ABFFE1882846FFF79EFF25E0208865
:1014D00004280AD12389A28861882846FFF753FF90
:1014E000E1882846FFF742FF17E0208808280AD144
:1014F0002389A28861882846FFF7FBFEE1882846F9
:10150000FFF7EEFE09E02389A28861882846FFF7ED
:10151000A6FEE1882846FFF795FE70BD2DE9F04153
:1015200005460C4600260127608808B9022600E01F
:101530000026A088012801D1022700E00127208889
:10154000A0B92389A28861882846FFF766FFE18851
:101550002846FFF759FF23893A4631462846FFF7C8
:1015600012FFE1882846FFF701FF13E02389A288D4
:1015700061882846FFF707FFE1882846FFF7F6FE57
:1015800023893A4631462846FFF747FFE188284637
:10159000FFF73AFFBDE8F0810A884B881A438B8831
:1015A0001A43CB881A430B891A434B891A438B89F8
:1015B0001A43A0F8442070474FF6FF718180002144
:1015C0000180C1804180017270470021018041800B
:1015D0008180C180018141818181C1817047002169
:1015E00001804180012181800021C18001817047FB
:1015F0000021018041808180C18001814181818100
:1016000070470000002C01400034014000040040FD
:1016100000080040000C004021B1028842F00102A5
:10162000028004E002884FF6FE731A400280704781
:1016300031B1B0F8442042F40042A0F8442005E063
:10164000B0F84420C2F30E02A0F8442070471AB14B
:1016500083890B43838102E083898B4383817047B5
:101660008182704741EA0203A0F8483070471AB1FE
:1016700083890B43838102E083898B438381704795
:1016800001894FF6F8721140018170470A46002126
:1016900001894FF68F73194011430181704730B5AE
:1016A00004460D4629462046FFF7F0FF208940F00A
:1016B0000700208130BD2DE9F04104460D46164655
:1016C0001F46602D06D13B46012231462046FFF7DA
:1016D0005AFE05E03B46012231462046FFF79DFEBB
:1016E00029462046FFF7D2FF208940F007002081DD
:1016F000BDE8F08130B50C4600210189C9B24FF632
:10170000FF7505EA0325154325432943018130BDB3
:101710002DE9F04105460E461746984600244346FB
:101720003A4631462846FFF7E5FF2C894FF6F87018
:10173000044044F007044FF68F70044044F07004F6
:101740002C81BDE8F081F0B504460D4616461F46D3
:101750003B46324629462046FFF7CCFF208940F41D
:1017600080402081F0BD0185828270470A460021B9
:1017700001884FF68F731940114301807047F0B50F
:101780000C4615461E460021002200230189028BCB
:10179000038C4FF6F877394021434FF6FC473A4027
:1017A00040F201173A434FF6DD773B404FF6FF77A3
:1017B00007EA06172F433B43018102830384F0BDF0
:1017C0000A460021018B4FF68F73194011430183A4
:1017D00070470A460021018B48F6FF7319404FF607
:1017E000FF7303EA02231943018370470A4600216D
:1017F000818B4FF68F7319401143818370470A46DE
:101800000021818B48F6FF7319404FF6FF7303EAFE
:10181000022319438183704721B1028842F080027C
:10182000028004E002884FF67F731A4002807047FE
:1018300021B1828842F00402828004E082884FF65F
:10184000FB731A408280704721B1828842F00802FF
:10185000828004E082884FF6F7731A4082807047D6
:1018600021B1828842F00102828004E082884FF632
:10187000FE731A40828070470A460021018B4FF6A2
:10188000F77319401143018370470A460021018B09
:101890004FF2FF7319404FF6FF7303EA0223194317
:1018A000018370470A460021818B4FF6F773194078
:1018B0001143818370470A460021818B4FF2FF73E9
:1018C00019404FF6FF7303EA0223194381837047DF
:1018D0000A460021018B4FF6FB7319401143018327
:1018E00070470A460021018B4FF6FF3319404FF62F
:1018F000FF7303EA02231943018370470A4600215C
:10190000818B4FF6FB7319401143818370470A4660
:101910000021818B4FF6FF3319404FF6FF7303EA26
:1019200002231943818370470A460021018B4FF639
:101930007F7319401143018370470A460021018BD0
:10194000C1F30E014FF6FF7303EA0223194301832B
:1019500070470A460021818B4FF67F73194011436F
:10196000818370470A460021818BC1F30E014FF637
:10197000FF7303EA02231943818370470A4600215B
:10198000018C4FF6FD7319401143018470470A46DC
:101990000021018C4FF6F773194011430184704701
:1019A0000A460021018C4FF6DF7319404FF6FF7392
:1019B00003EA02131943018470470A460021018C8F
:1019C0004FF67F7319404FF6FF7303EA0213194372
:1019D000018470470A460021018C4FF6FF531940DD
:1019E0004FF6FF7303EA02231943018470470A4646
:1019F0000021018C4FF2FF7319404FF6FF7303EA89
:101A000002231943018470470A460021018C4DF6D8
:101A1000FF7319404FF6FF7303EA02331943018441
:101A2000704730B5002301248C40A3B2048C9C4342
:101A30000484048C02FA01F5ADB22C43048430BD59
:101A400030B5002304248C40A3B2048C9C4304844E
:101A5000048C02FA01F5ADB22C43048430BD70B59C
:101A60000346002000241846183001258D40ACB2F2
:101A70001D8CA5431D8409B1082909D100EB610023
:101A8000056825F0700505600568154305600EE0E2
:101A90000D1FC5F34E052844056825F4E045056093
:101AA00005684FF6FF7606EA02263543056070BDED
:101AB00021B1028842F00202028004E002884FF65F
:101AC000FD731A400280704721B1028842F004027F
:101AD000028004E002884FF6FB731A4002807047D0
:101AE00021B1828842F08002828004E082884FF631
:101AF0007F731A408280704702884FF6F7731A404E
:101B0000028002880A430280704782884FF68F73F2
:101B10001A40828082880A438280704702894FF689
:101B2000F8731A40028102890A43028170470289D0
:101B30004FF67F731A40028102890A43028170477F
:101B4000818470478185704781867047018770471F
:101B500081877047A0F84010704702884FF6FF4316
:101B60001A40028002880A43028070470146888E2C
:101B700070470146088F70470146888F70470146BD
:101B8000B1F8400070470146888C70470146088DC7
:101B9000704702460020138A0B400BB1012000E081
:101BA00000207047CA430282704730B502460020C9
:101BB00000230024158A05EA0103958905EA01043A
:101BC00013B10CB1012000E0002030BDCA430282F5
:101BD0007047000010B50446FB48844209D101213A
:101BE0008803FFF79FF800214FF48040FFF79AF831
:101BF00032E0F648844209D101214804FFF79FF8FA
:101C000000214FF40030FFF79AF825E0F0488442B5
:101C100009D101218804FFF792F800214FF48020B8
:101C2000FFF78DF818E0EB48844209D10121C80480
:101C3000FFF785F800214FF40020FFF780F80BE054
:101C4000E548844208D101210805FFF778F8002112
:101C50004FF48010FFF773F810BD2DE9F04786B000
:101C600005460E460024A24600BFA1460027B089C3
:101C700000B100BF2F462C8A4CF6FF700440F0885C
:101C800004432C82AC894EF6F3100440B0883189AD
:101C90000843718908430443AC81AC8A4FF6FF4086
:101CA0000440B0890443AC8201A8FEF7B4FFC648E3
:101CB000874202D1DDF810A001E0DDF80CA0A88970
:101CC00000F4004040B10AEBCA0000EB0A10316892
:101CD0004900B0FBF1F807E00AEBCA0000EB0A107C
:101CE00031688900B0FBF1F86420B8FBF0F0040122
:101CF0002009642101FB1089A88900F4004040B14B
:101D0000322000EBC900B0FBF1F000F00700044303
:101D100008E0322000EB09106421B0FBF1F000F084
:101D20000F0004432C8106B0BDE8F0874FF4165134
:101D3000016000218180C18001810C21418100214D
:101D40008181704710B502460020108A4FF2FF03D0
:101D500018400B884C8823438C882343CC8823432A
:101D60001843108210BD0021018041808180C18014
:101D7000704721B1828942F40052828104E0828955
:101D80004DF6FF731A4082817047F0B50346002478
:101D900000260025002040F66A17B94200D100BF96
:101DA0001846C1F3421401F01F06012707FA06F591
:101DB000012C01D10C3004E0022C01D1103000E0E4
:101DC00014301AB107682F43076002E00768AF4379
:101DD0000760F0BD1AB1838A0B43838202E0838AD5
:101DE0008B4383827047028A4FF6F0731A40028257
:101DF000028A0A430282704782894FF2FF731A40B7
:101E0000828182890A438281704721B1828942F0AE
:101E10000202828104E082894FF6FD731A408281BA
:101E20007047028A4FF6DF731A400282028A0A4321
:101E30000282704721B1028A42F48042028204E0A9
:101E4000028A4BF6FF731A4002827047C1F3080200
:101E50008280704701468888C0F3080070478189F6
:101E600041F0010181817047028BD2B20283028B63
:101E700042EA012202837047028B02F47F4202830E
:101E8000028B0A430283704721B1828A42F020020A
:101E9000828204E0828A4FF6DF731A4082827047A2
:101EA00021B1828A42F01002828204E0828A4FF6D7
:101EB000EF731A408282704721B1828A42F0080291
:101EC000828204E0828A4FF6F7731A40828270475A
:101ED00021B1828942F40042828103E08289C2F307
:101EE0000E028281704721B1828A42F400628282AE
:101EF00004E0828A4FF2FF731A4082827047828A1E
:101F00004FF6FB731A408282828A0A4382827047AC
:101F100021B1828A42F00202828204E0828A4FF674
:101F2000FD731A408282704702460020B1F5007F9F
:101F300000D100BF13880B400BB1012000E000204E
:101F4000704701F40072B2F5007F00D100BFCA43B0
:101F50000280704770B5024600240023002500204F
:101F600040F66A16B14200D100BFC1F3421501F03C
:101F70001F03012606FA03F3012D02D1968933408F
:101F800006E0022D02D1168A334001E0968A3340E2
:101F90000C12012606FA04F41688344013B10CB171
:101FA000012000E0002070BD10B50022002340F6A3
:101FB0006A14A14200D100BF0A1201249440A3B2C6
:101FC000DC43048010BD00000038014000440040A4
:101FD00000480040004C00400050004010B56FF039
:101FE0000400FEF7BCFA2E4800682E49B0FBF1F061
:101FF0002D4908700846007800EB4001C1EBC01085
:102000004FF6FF7101EAC0002849088010BD014663
:10201000254A12784A434FF0E0235A6100229A6120
:102020001A46126942F001021A6100BF4FF0E02225
:10203000106900F001021AB100F48032002AF5D0D4
:102040004FF0E022126922F001024FF0E0231A6102
:1020500000229A6170470146144A12884A434FF0A1
:10206000E0235A6100229A611A46126942F0010285
:102070001A6100BF4FF0E022106900F001021AB1AE
:1020800000F48032002AF5D04FF0E022126922F0ED
:1020900001024FF0E0231A6100229A6170470000AC
:1020A0002400002000127A004C0000204E00002086
:1020B000014600BF704700BFA74A128802F04002E5
:1020C000002AF9D0C2B2A44B1B1D1A80704710B56C
:1020D00086B00446012144F20400FEF709FE4FF4E5
:1020E0000070ADF8140003208DF8160018208DF84C
:1020F000170005A99948FEF73FFB4FF48060ADF843
:10210000140004208DF8170005A99448FEF734FB4D
:1021100001940020ADF80800ADF80A00ADF80C00FD
:10212000ADF810000C20ADF80E0001A98C48FFF7A7
:1021300094FD012240F225518948FFF726FE012136
:102140008748FFF716FE06B010BD10B586B00446EE
:1021500001210420FEF7CCFD01214804FEF7D5FD46
:102160000420ADF8140003208DF8160018208DF817
:10217000170005A97948FEF7FFFA0820ADF814000A
:1021800004208DF8170005A97448FEF7F5FA0194AC
:102190000020ADF80800ADF80A00ADF80C00ADF86D
:1021A00010000C20ADF80E0001A96B48FFF755FD9B
:1021B000012240F225516848FFF7E7FD01216648FA
:1021C000FFF7D7FD26208DF8000001208DF80300D1
:1021D0008DF801008DF802006846FEF776F906B02A
:1021E00010BD2DE9F04786B04FF0000A40F22551AE
:1021F0005948FFF7AFFE00287ED05748FFF72AFE68
:102200005849594A12788854084657490978405C19
:10221000632821D004DC612807D062286DD110E04A
:10222000642824D07D28F9D12AE05048007808B9E4
:10223000012000E000204D49087000204A49087044
:1022400085E04B4800684B490968084448490860E4
:102250000020454908707AE045480068454909680A
:10226000401A4349086000203F4908706FE0404829
:10227000006840423E49086000203B49087066E023
:1022800003203D49087033E037490978491E3A4A2E
:102290001278881A02F0FBFD02460B46CDE90001D8
:1022A0000020364901F09EFE06460F462D49324A6F
:1022B0001278895CA1F1300002F0E9FD32463B461C
:1022C000CDE9020102F036FE04460D46504602F00A
:1022D000DEFD804622462B4602F096FBCDE9040146
:1022E00002F0A6FD824624480078401C224908706E
:1022F000214800781C4901E02AE022E00978884260
:10230000C2DB18484078302806D0312808D032285F
:102310000AD0332810D10BE01948C0F800A00BE018
:102320001848C0F800A007E01148C0F800A003E07A
:102330001048C0F800A000BF00BF00200A49087084
:1023400005E009480078401C0749087000BF00BF3D
:1023500006B0BDE8F08700000044004000080140DE
:1023600000380140680000205600002000000020D6
:10237000040000202000002057000020000024401E
:102380000C0000201000002008B501210820FEF7F5
:10239000AFFC10208DF803004FF44060ADF8000052
:1023A00003208DF8020069462548FEF7E5F908BDCF
:1023B00030B589B005460C460121C802FEF798FCED
:1023C00001210420FEF794FC18208DF807004FF43B
:1023D0000060ADF8040003208DF8060001A919483B
:1023E000FEF7CAF9ADF81C50ADF818400020ADF862
:1023F0001A00ADF81E0006A91348FEF7B1FD6020D3
:10240000ADF808000120ADF80A000020ADF80E007C
:10241000ADF8100002A90C48FEF7B9FE08210A48E1
:10242000FFF749FA01210848FFF7F6F901210648AC
:10243000FFF7F2F801210448FFF7FAF809B030BDC0
:10244000000C014000080140002C014000B587B09D
:1024500001210420FEF759FC01210820FEF748FC69
:10246000C020ADF8000004208DF80300694637480D
:10247000FEF782F904A8FFF79FF80020ADF81000DE
:102480004FF6FE70ADF814000020ADF816002020C5
:10249000ADF8120004A92E48FEF762FD00231A468B
:1024A00003212B48FFF76BF901A8FFF798F80A20E2
:1024B000ADF80C0001A92648FEF7E5FF01212448EC
:1024C000FFF770FB012211462148FFF7C0F84FF4D7
:1024D0007A711F48FFF734FB01211D48FFF79CF874
:1024E00007B000BD10B501211948FFF752FB0128C4
:1024F00003D101211648FFF769FB10BD0246022AED
:1025000004D0032A0BD0042A1AD10FE04FF08040E8
:10251000808C01B200204FF08043988412E00D4877
:10252000008801B200200B4B18800BE008482430D3
:10253000008801B24FF47A70054B2433188001E013
:10254000002100BF00BFA1F57A707047000C014068
:1025500000080040240400407FB505460C460121D8
:102560000220FEF7D2FBADF80850ADF80440002081
:10257000ADF80A00ADF8060001A92E48FEF7F0FC00
:10258000012211462B48FFF762F81D208DF800004C
:1025900001208DF803008DF8010003208DF8020062
:1025A0006846FDF792FF01212248FFF735F87FBD0D
:1025B0007FB505460C4601210846FEF7A6FBADF89F
:1025C0000850ADF804400020ADF80A00ADF8060050
:1025D00001A94FF08040FEF7C3FC0122114690078D
:1025E000FFF735F81C208DF8000001208DF803005E
:1025F0008DF8010003208DF802006846FDF765FFA5
:1026000001218807FFF708F87FBD10B50121880771
:10261000FFF7BFFA01280BD101218007FFF7D6FA97
:102620000548006820B104480068401E024908605F
:1026300010BD0000000400406400002008B5012126
:102640001420FEF755FB1320ADF8000048208DF84C
:10265000030003208DF8020069463048FEF78CF82D
:102660004FF40040ADF8000069462D48FEF784F8AD
:1026700008BD01462B48006828B92B48007810B9DE
:102680000120294A107029480078B0B926480078FE
:10269000012807D126480078401C254A10700120E7
:1026A000224A107022480078022806D10020204AD1
:1026B0001070204A1080022070471A4800680128D4
:1026C00004D10020184A1070184A10701848007879
:1026D00001280ED117480088401C80B2154A10808E
:1026E000884206DD0020124A1070124A1080012034
:1026F000E2E70020E0E71048007838B109480068B8
:1027000020B900200C490870012070470548006876
:10271000012801D1084908700020F6E700080140AF
:10272000001001401481214258000020590000206F
:102730005A0000205C0000205E00002030B50346F7
:102740001C788C545D78541C0D559D78941C0D5547
:10275000DD78D41C0D5530BD13B50C460A2C00DCB9
:1027600004B91CBD0B2C43D2DFE804F042060C1266
:10277000181E242A30363C00012244496846FFF7DF
:10278000DDFF35E0052241496846FFF7D7FF2FE01E
:1027900009223E496846FFF7D1FF29E00D223B4957
:1027A0006846FFF7CBFF23E0112238496846FFF760
:1027B000C5FF1DE0152235496846FFF7BFFF17E04A
:1027C000192232496846FFF7B9FF11E01D222F494F
:1027D0006846FFF7B3FF0BE021222C496846FFF75C
:1027E000ADFF05E0252229496846FFF7A7FF00BF96
:1027F00000BF00BFB5E701460A2900DC09B9002087
:1028000070472420214A10700B293CD2DFE801F0E8
:102810003B060B10151A1F24292F350005201B4AD3
:1028200050710620ECE70920184A50720A20E7E7A9
:102830000D20164A50730E20E2E71120134A5074FF
:102840001220DDE71520114A50751620D8E719200F
:102850000E4A50761A20D3E71D200C4A50771E20CE
:10286000CEE72120094A82F821002220C8E725204E
:10287000064A82F825002620C2E72920034A82F86A
:1028800029002A20BCE70020BAE700007C000020D5
:102890000EB5FFF7D3FE01210846FEF729FA002105
:1028A0000846FEF77FF80120019000208DF808000F
:1028B0000C208DF8090001208DF80A0001A8FDF711
:1028C0007BFE01210020FEF76DF80220019001A897
:1028D000FDF772FE04210020FEF764F8102001903D
:1028E00001A8FDF769FE0F210220FEF75BF84FF407
:1028F0000040019001A8FDF75FFE06208DF8000062
:1029000002208DF8010003208DF8020001208DF8CF
:1029100003006846FDF7D9FD07208DF800006846E2
:10292000FDF7D3FD0A208DF800006846FDF7CDFDC8
:1029300028208DF800006846FDF7C7FD0EBD10B5D4
:102940000A20FFF788FB02212B48FDF7A8FF38B9C2
:102950002A48007808B9012000E0002027490870C3
:102960000220FDF7A0FE10BD10B50A20FFF773FB93
:1029700001212148FDF793FF60B9214800682149F2
:10298000096808441E49086008460068462801DBBB
:10299000462008600120FDF786FE10BD10B50A2014
:1029A000FFF759FB4FF400411748FDF778FF60B976
:1029B0001348006813490968401A1149086008461D
:1029C0000068002801DC002008604FF40040FDF79B
:1029D0006AFE10BD10B50A20FFF73DFB1021064826
:1029E000FDF75DFF20B906480068404204490860D1
:1029F0001020FDF758FE10BD000801400000002027
:102A0000040000202000002000100140032000BF2F
:102A1000011EA0F10102D0B2FAD1704710B54FF4F7
:102A20008041FE48FDF757FF4FF40051FB48FDF78A
:102A300050FFFFF7EBFF4FF48041F848FDF749FFE7
:102A400010BD10B54FF48041F448FDF742FFFFF789
:102A5000DDFF4FF40051F148FDF73BFFFFF7D6FFD4
:102A60004FF40051ED48FDF736FFFFF7CFFF10BDE3
:102A700070B5044600251FE004F0800028B14FF433
:102A80008041E648FDF725FF04E04FF48041E3482C
:102A9000FDF721FFFFF7BAFF4FF40051DF48FDF7C4
:102AA00018FFFFF7B3FF4FF40051DC48FDF713FFA9
:102AB0006006040E681CC5B2082DDDDB70BD10B5C4
:102AC0004FF48041D548FDF704FF4FF40051D3483F
:102AD000FDF7FFFEFFF79AFF4FF48041CF48FDF767
:102AE000FAFEFFF793FF4FF40051CC48FDF7F3FED9
:102AF000FFF78CFF10BD70B505460C46FFF7DFFFF2
:102B00007820FFF7B5FFFFF79CFF1CB14020FFF7CF
:102B1000AFFF02E00020FFF7ABFFFFF792FF284670
:102B2000FFF7A6FFFFF78DFFFFF778FF70BD10B529
:102B300004461CB90021A620FFF7DDFF012C03D1BC
:102B40000021A720FFF7D7FF10BD10B504463CB900
:102B50000021C820FFF7CFFF0021A120FFF7CBFF06
:102B6000012C07D10021C020FFF7C5FF0021A020C4
:102B7000FFF7C1FF10BD10B500218D20FFF7BBFF8F
:102B800000211420FFF7B7FF0021AF20FFF7B3FFAC
:102B900010BD10B500218D20FFF7ADFF00211020E2
:102BA000FFF7A9FF0021AE20FFF7A5FF10BD70B50C
:102BB00000242BE004F1B001C8B20021FFF79BFF15
:102BC00000210846FFF797FF00211020FFF793FF31
:102BD000FFF775FF7820FFF74BFFFFF732FF40202C
:102BE000FFF746FFFFF72DFF002509E08C4901EBB9
:102BF000C501085DFFF73CFFFFF723FF681CC5B266
:102C0000802DF3DBFFF70AFF601CC4B2082CD1DB78
:102C100070BD70B500240CE0002506E0002080495E
:102C200001EBC5010855681CC5B2802DF6DB601CA0
:102C3000C4B2082CF0DBFFF7BAFF70BD10B54FF43B
:102C40008061774801F02EF810BDF0B503461446B8
:102C50007F2B01DC3F2900DDF0BDDCB1CD1701EB9E
:102C60005575ED106E4E06EBC306755D0A46CE1720
:102C700001EB5676F610A1EBC6070126BE403543A0
:102C80000846CE1701EB5676F610654F07EBC307E3
:102C9000BD551AE0CD1701EB5575ED10604E06EBF2
:102CA000C306755D0A46CE1701EB5676F610A1EB0A
:102CB000C6070126BE40B5430846CE1701EB56763F
:102CC000F610574F07EBC307BD5500BFC4E72DE90A
:102CD000FF4F84B081468A460020029083460698C2
:102CE000A0EB09040798A0EB0A06CDF80490CDF8F4
:102CF00000A0002C01DD012705E00CB9002702E04F
:102D00004FF0FF376442002E02DD4FF0010806E06D
:102D100016B94FF0000802E04FF0FF386642B442A7
:102D200001DD254600E03546002003901EE0009AB4
:102D3000D1B2019AD0B2119AFFF787FF02982044CE
:102D40000290B3440298A84205DD0298401B02900D
:102D5000019838440190AB4504DDABEB050B0098BE
:102D6000404400900398401C80B20390691C039873
:102D70008842DCDB08B0BDE8F08F2DE9F043064661
:102D80000F4690460025444643E03A1BD1B27219E3
:102D9000D0B20122FFF759FF3A1BD1B2721BD0B259
:102DA0000122FFF752FF3A19D1B2721BD0B20122B1
:102DB000FFF74BFF3A19D1B27219D0B20122FFF7D7
:102DC00044FF7A19D1B23219D0B20122FFF73DFF88
:102DD0007A1BD1B23219D0B20122FFF736FF7A1B2B
:102DE000D1B2321BD0B20122FFF72FFF7A19D1B234
:102DF000321BD0B20122FFF728FF6D1C05FB05F046
:102E000004FB040008FB1809B9F1000F01DD641E82
:102E10006D1E6000604308FB08F103E000100140F4
:102E2000A60000208842B0DABDE8F0832DE9FE4F0D
:102E30000746884692461C460197CDF80080082C2C
:102E400002D14FF006091FE02046E31704EB53734D
:102E5000DB1021464FEAE47C04EB5C7C4FEAEC0C8F
:102E6000A4EBCC0CBCF1000F02D04FF0010C01E040
:102E70004FF0000C6344224604EBD27C4FEA6C0C0A
:102E800003FB0CF303F0FF09AAF12000C6B20025F2
:102E90005EE0082C07D106EB4600FE4901EB40003E
:102EA00010F805B01DE00C2C07D106EB4600FA49DE
:102EB00001EB800010F805B013E0102C05D1F748A5
:102EC00000EB061010F805B00BE0182C07D106EB4C
:102ED000C600F34901EB800010F805B001E0BDE841
:102EE000FE8F002002901CE00BF0010028B141464B
:102EF00038460C9AFFF7A9FE09E00C9808B90120A2
:102F000000E00020024641463846FFF79EFE4FEAA9
:102F10006B0B08F1010000F0FF080298401CC0B2E2
:102F2000029002980828DFDB781CC7B2082C0BD06F
:102F300004EBD4714A100199791A8A4204D1019F95
:102F400000980830C0B20090DDF80080681CC5B25F
:102F50004D459EDB00BFC2E72DE9F84106460F460E
:102F600014461D46DDF81C8013E0CDF80080227861
:102F70002B4639463046FFF759FF082D02D1B01DC8
:102F8000C6B205E0284605EBD07106EB6101CEB272
:102F9000641C2078202802DB20787E28E5DDBDE84F
:102FA000F88110B50246012000E050430B1EA1F14C
:102FB0000104E1B2F9D110BD2DE9FF4F82B0064600
:102FC00091461F46DDE90F4A4FF0000B082C01D156
:102FD0004FF0020B002530E0781B401EC1B20A20E2
:102FE000FFF7DFFFB9FBF0F00A21B0FBF1F201FBC4
:102FF0001208B8F1000F0ED104EBD4710BEB610194
:1030000001FB0561C8B223463022CDE900A4039933
:10301000FFF70CFF0FE004EBD4710BEB610101FB38
:103020000561C8B208F13001CAB22346CDE900A457
:103030000399FFF7FBFE681CC5B2BD42CCDB06B0AE
:10304000BDE8F08F2DE9FC4F0746884616461C4622
:10305000BB46CDF804802046E21704EB5272D21032
:103060002146E31704EB5373DB10A4EBC3030BB14E
:10307000012300E000231A44624392B2009200252B
:1030800055E0102C05D1874800EB461010F805A03C
:103090001BE0182C07D106EBC600834901EBC000EA
:1030A00010F805A011E0202C05D1804800EBC610D7
:1030B00010F805A009E0402C05D17D4800EB462022
:1030C00010F805A001E0BDE8FC8F4FF000091CE0FE
:1030D0000AF0010028B1414638460B9AFFF7B5FDCA
:1030E00009E00B9808B9012000E0002002464146A3
:1030F0003846FFF7AAFD4FEA6A0A08F1010000F01E
:10310000FF0809F1010000F0FF09B9F1080FDFDB4A
:10311000781CC7B2A7EB0B00A04204D15F46019810
:103120000830C0B20190DDF80480681C85B20098B8
:103130008542A6DB00BFC6E708B5804689469246B1
:10314000002600274BE04FB910233246182180207B
:10315000CDF800A0FFF776FF701CC6B2464522D11D
:103160004FF0000B1AE0012410E000250AE051485E
:1031700000EBC400415D601E4E4A02EBC0004155A9
:10318000681CC5B2082DF2DB601CC4B2902CECDBCD
:10319000FFF70DFD0BF1010000F0FF0B4FEA0910E6
:1031A0005845E0DC0026781CC7B2102F00D100275C
:1031B000012410E000250AE03E4800EBC400415D18
:1031C000601E3C4A02EBC0004155681CC5B2082D88
:1031D000F2DB601CC4B2902CECDBFFF7E8FCB2E73A
:1031E0002DE9FF4F05460E4617461C46DDF8389080
:1031F0004FF0000A0095B3462046E21704EB5272E6
:10320000D2102146E31704EB5373DB10A4EBC30386
:103210000BB1012300E000231A44D4B24FF00008A0
:1032200058E0002003904EE00D9810F80A0002903C
:103230000AF101001FFA80FA002001901DE00298B7
:1032400000F0010028B14A4631462846FFF7FDFC50
:103250000AE0B9F1000F01D1012000E00020024690
:1032600031462846FFF7F1FC029840100290701C8E
:10327000C6B20198401CC0B2019001980828DEDB5C
:10328000681CC5B20098281AB84217D1009D0BF1EE
:10329000080011E0745600089C580008105D0008F2
:1032A000006300085C7000081C710008647100086D
:1032B000E4710008A600002000F0FF0B5E460398B2
:1032C000401CC0B203900398B842ADDB08F1010086
:1032D00000F0FF08A045A4DBBDE8FF8F08B5012181
:1032E0001020FDF705FD4FF40050ADF8000014204C
:1032F0008DF8030003208DF8020069464648FDF76B
:103300003BFA4FF400514448FDF7E3FA4FF4804094
:10331000ADF8000014208DF8030003208DF80200A2
:1033200069463D48FDF728FA4FF480413A48FDF7D9
:10333000D0FA0021AE20FFF7DEFB00210846FFF7A0
:10334000DAFB00211020FFF7D6FB00214020FFF719
:10335000D2FB00218120FFF7CEFB0021CF20FFF719
:10336000CAFB0021A120FFF7C6FB0021C820FFF700
:10337000C2FB0021A620FFF7BEFB0021A820FFF71B
:10338000BAFB00213F20FFF7B6FB0021D320FFF757
:10339000B2FB00210846FFF7AEFB0021D520FFF766
:1033A000AAFB00218020FFF7A6FB0021D920FFF710
:1033B000A2FB0021F120FFF79EFB0021DA20FFF79E
:1033C0009AFB00211220FFF796FB0021DB20FFF77C
:1033D00092FB00214020FFF78EFB00212020FFF709
:1033E0008AFB00210220FFF786FB00218D20FFF7DA
:1033F00082FB00211420FFF77EFB0021A420FFF7B1
:103400007AFB0021A620FFF776FBFFF702FC0021E4
:10341000AF20FFF770FB08BD0010014010B5F74862
:10342000006802F097F804460121FFF795F9F44887
:10343000006802F08FF804460221FFF78DF903219E
:103440000020FFF789F90320FFF7D5F9ED4908704F
:103450000020ED49087012E000BFEC48008800F041
:1034600040000028F9D0EA48E7490978405CE7497C
:10347000091D0880E4480078401CE3490870E248D0
:103480000078E04909788842E6DB10BD10B50446B3
:10349000E048006858B9FFF78AFBFFF7CFFB4FF40D
:1034A0007A7090FBF4F0DB490860012010BD002029
:1034B000FCE7F0B5ADF2044D00273C254FF48061E8
:1034C00001A800F011FC022000F0CEFB002437E040
:1034D00001A800EBC400C07988BBFCF77DFE7F210A
:1034E00090FBF1F201FB120000B201A921F83400B7
:1034F000FCF772FE0646C01706EB90608011A6EB43
:10350000801000B201A901EBC4014880002001A98C
:1035100001EBC4018871FCF75FFE0646C01706EB9D
:103520005070C010A6EBC000401C00B201A901EB16
:10353000C4018880012001A901EBC401C871641C89
:10354000802CC5DB9AE02846FFF7A0FF012806D1B2
:103550007F1CB7EB450F02DB0DF2044DF0BD0024DC
:1035600089E001A800EBC400C07948BB002001A994
:1035700021F83400FCF730FE0646C01706EB9060D9
:103580008011A6EB801000B201A901EBC4014880B4
:10359000FCF722FE062190FBF1F201FB1200401C19
:1035A00000B201A901EBC4018880002001A901EB50
:1035B000C4018871012001A901EBC401C87159E05F
:1035C00001A800EBC4008079401C01A901EBC401F3
:1035D000887101A830F934007C2804DB002001A99F
:1035E00001EBC401C871002001AE06EBC4060090D7
:1035F000B37801AE16F8342006EBC406B17801AEFC
:1036000016F83400FFF763FB01A800EBC4008079D3
:1036100001A901EBC401B1F9041088420CD10020CA
:1036200001A901EBC401887101A830F83400401CE5
:1036300000B201A921F8340001A800EBC400B0F9E0
:103640000400062191FBF0F001A911F834100844A0
:10365000401EC6B2012001AA02EBC402009093787A
:1036600001AA02EBC402917801AA12F83400324692
:10367000FFF72DFB641C802CFFF673AF63E708B5E2
:103680000120102364A2002100902020FFF764FC99
:10369000012010230022202100900420FFF7D2FCFB
:1036A000012010230246202100901920FFF7CAFCB8
:1036B000012010230222202100902E20FFF7C2FCBF
:1036C000012010230322202100904320FFF7BAFCA1
:1036D000012010230422202100905820FFF7B2FC83
:1036E000012010230522202100906D20FFF7AAFC65
:1036F000FFF75DFA4FF47A70FEF7ADFC4FF47A7085
:10370000FEF7A9FCFFF785FA41F61F410920FEF7F5
:103710004FFFFFF7CEFE002201218807FDF797FF3C
:1037200000214FF08040FDF777FF08BD7CB50120F8
:10373000102339A2002100900846FFF70DFC3948FC
:10374000007840B10120102337A2002100904820CA
:10375000FFF702FC18E02A480068002808DA012078
:10376000102333A2002100904820FFF7F5FB0BE067
:1037700023480068002807DD012010232EA2002125
:1037800000904820FFF7E8FB012010232CA21946E7
:1037900000900020FFF7E0FB012010210323CDE97A
:1037A0000010284802681820FFF706FC01201023AB
:1037B00025A2194600904020FFF7CEFB01201021E2
:1037C0000323CDE90010214802685820FFF7F4FBDD
:1037D000012010231EA2202100900020FFF7BCFB37
:1037E00007480068002837DB012010232B22202106
:1037F00000900846FFF71AFB3AE00000080000209E
:10380000040000206100002060000020003801401A
:103810007C0000206400002043617073746F6E654B
:10382000000000000000002053746F702020200072
:103830004261636B20202000466F727761726400E2
:103840004B703A000C0000204B693A001000002039
:103850007365743A000000006A480068002807DABF
:10386000012010232D22202100900846FFF7DEFAC8
:103870006448066801201021CDE90010002E01DB0C
:10388000304600E070420246022320212820FFF744
:1038900093FB012010235CA2202100904020FFF721
:1038A0005BFB0120102359A2202100906820FFF724
:1038B00053FB54490868002801DB014600E04142FF
:1038C00041F2707251434FF4C36291FBF2F4012054
:1038D000102103232246CDE9001020215020FFF7BC
:1038E0006BFB012010234AA2302100900020FFF73B
:1038F00033FB49480068002808DB012010232B22F5
:10390000302100902020FFF791FA0BE04248006838
:10391000002807DA012010232D22302100902020DA
:10392000FFF784FA3C48066801201021CDE9001019
:10393000002E01DB304600E07042024602233021B7
:103940002820FFF739FB012010232FA230210090FF
:103950004020FFF701FB012010232CA23021009012
:103960006820FFF7F9FA2C490868002801DB0146B6
:1039700000E0414241F2707251434FF4C36291FB47
:10398000F2F50120102103232A46CDE90010302151
:103990005020FFF711FBFFF70AF97CBD38B5FFF7A0
:1039A0004DF9002410E00120009004EB8400400653
:1039B000020E3F2300210846FFF789F9FFF7F7F8C9
:1039C0003220FEF748FB641C142CECDB002412E0D0
:1039D0000120009004EB84008021A1EB4000C2B2E2
:1039E0003F2300218020FFF772F9FFF7E0F8322033
:1039F000FEF731FB641C142CEADB4FF47A70FEF7FF
:103A00002AFB38BD040000206E3A000072706D0081
:103A10006765743A00000000080000200146002994
:103A200001DA484200E00846704700B50246002A25
:103A300007DD00203F49086001203F49C1F8A80187
:103A400006E001203B49086000203B49C1F8A8017D
:103A50001046FFF7E3FF3949088000BD4FF4E150FD
:103A6000374909684242914202DA4142344A1160C0
:103A700033490968814201DD3149086070473148A6
:103A8000006831490968401A30490968484330499B
:103A900009682C4A126801FB020029490968084498
:103AA00027490860274800682749086024480068BB
:103AB000704710B501212748FEF76BF8012836D171
:103AC00001212448FEF782F82348007898B90420A1
:103AD000FEF714FD21490860214800680968401A72
:103AE00018490860FFF7CBFFFFF7B8FF14480068DC
:103AF000FFF79BFF0BE000200E4908600E49C1F85C
:103B0000A8010E490880154908600F49086015484A
:103B1000007801280BD114480078401CC0B212492B
:103B20000870052803D1002008700E490870002095
:103B300010BD0000AC81214200802142402C014098
:103B40001C00002014000020180000200C000020A1
:103B500010000020000400400000002008000020A9
:103B60000400002062000020630000207047000075
:103B70000FB4044910B503AA029800F045F910BC2F
:103B80005DF814FB500000202DE9F0410E4604467C
:103B9000002020622046E168884730B3252805D000
:103BA000D4E901219047206A401CF2E7E1682046F1
:103BB00000278847050018D0A5F14100192802D830
:103BC00020354FF400673246294620462760FCF72F
:103BD000E9FA40B1012804D0F61D26F007060836A0
:103BE000D8E7361DD6E72846DAE7206ABDE8F08137
:103BF0002DE9F0410646002410687529314616A5C6
:103C000010D0AFF30080002802DA404213A507E08D
:103C100031688A0701D512A502E0490704D511A52C
:103C2000012401E0AFF3008000210A2206F12407FD
:103C300009E0B0FBF2FCB0FBF2F302FB1C003030F9
:103C400078541846491C0028F3D123462A463046AA
:103C5000BDE8F04100F07EB8000000002D0000003B
:103C60002B000000200000000B4910B5A1F17C02E0
:103C70000A4CC2E93712372106E000EB104342F844
:103C80002130074B00FB03400B1EA1F10101F4DCC6
:103C900010BD0120E8E7000024050020E119D666E8
:103CA000CD0D01004FF000020429C0F0128010F089
:103CB000030C00F01B80CCF1040CBCF1020F18BF08
:103CC00000F8012BA8BF20F8022BA1EB0C0100F09B
:103CD0000DB85FEAC17C24BF00F8012B00F8012B6E
:103CE00048BF00F8012B70474FF0000200B51346A3
:103CF00094469646203922BFA0E80C50A0E80C500C
:103D0000B1F12001BFF4F7AF090728BFA0E80C50BC
:103D100048BF0CC05DF804EB890028BF40F8042BB5
:103D200008BF704748BF20F8022B11F0804F18BF22
:103D300000F8012B7047704770477047704710B507
:103D400000F074F8006810BD10B5044600F06EF87D
:103D5000046010BD2DE9F0470D4699469246044691
:103D600000F124080168880604D5E06921F01001FB
:103D7000216000E00120A84201DD471B00E0002790
:103D8000A1697A1902EB0900081AA0612078C0061F
:103D900002D42046AFF30080002608E0D4E90121D8
:103DA0001AF806009047206A401C761C20624E4597
:103DB000F4DB2078C0060AD52046AFF3008006E089
:103DC000D4E9012130209047206A401C2062381E2F
:103DD000A7F10107F4DC07E0D4E9012118F8050098
:103DE0009047206A401C2062281EA5F10105F3DCE3
:103DF0002046AFF300802078000602D50220BDE8FF
:103E0000F0870120FBE70000074B70B50D467B44AF
:103E100000F015F80446284600F024F810B14FF0E1
:103E2000FF3070BD204670BDA5E2FFFF004870471F
:103E30008C05002001694A1C02610878704700B5B2
:103E40008FB0CDE901310021059105497944CDE9D3
:103E5000031011466846FFF797FE0FB000BD000043
:103E6000E5FFFFFF007B00F08000704700487047CF
:103E70008C0500207546FFF7F9FFAE460500694640
:103E8000534620F00700854618B020B5FCF706FB26
:103E9000BDE820404FF000064FF000074FF000084B
:103EA0004FF0000B21F00701AC46ACE8C009ACE8CC
:103EB000C009ACE8C009ACE8C0098D46704710B530
:103EC0000446AFF300802046BDE81040FCF77EB901
:103ED000490050EAC12018BF04204A0D18BF40F025
:103EE000010040F2FF72B2EB515F08BF40F00200E8
:103EF000012808BF052070472DE9F0414F1E00EB57
:103F0000C7010446D1E9000115461E4637F00602F6
:103F10000DD02A46334601F00DF87F1E04EBC7038F
:103F2000D3E9002300F070FD37F00602F1D1022F33
:103F300025D0042F13D0062F18BFBDE8F0812A46E4
:103F4000334600F0F7FFD4E90A2300F05DFD2A466E
:103F5000334600F0EFFFD4E9082300F055FD2A4670
:103F6000334600F0E7FFD4E9062300F04DFD2A4672
:103F7000334600F0DFFFD4E9042300F045FD2A4674
:103F8000334600F0D7FFD4E9022300F03DFD2A4676
:103F9000334600F0CFFFD4E90023BDE8F04100F044
:103FA00033BD0000002213461046014900F0E8BD71
:103FB0000000F03F00F028BD0022134610461146D5
:103FC00000F0DEBD40F2013200204FF0E04101F090
:103FD0000BBB0000024A0020110701F005BB0000E6
:103FE00001FDFFFF2DE9F04D1D460C4698B0174628
:103FF00021F0004123F00043002814BF4FF0010CD2
:104000004FF0000C0CEB440CFE4A0CEB02064FEA9E
:10401000620C66452BD33E0018BF012606EB450611
:104020001644F94A964222D3F84A53EA070C02D0C2
:10403000944205D148B918B000201146BDE8F08D72
:10404000002808BF4FF0000C01D04FF0010C0CEB22
:10405000440212F5001F0AD8002F14BF4FF0010CC4
:104060004FF0000C0CEB450212F5001F07D918B0F9
:104070003A462B462146BDE8F04DFFF79BBF002294
:10408000DFF88CA3002CB8BF534526DADFF884C3D1
:104090006345A8BF022220DADFF870C39C451CDC10
:1040A000DFF874C30CEB235CBCF1140F08DDCCF11A
:1040B000340627FA06FC0CFA06F6BE420DD108E0DB
:1040C0005FB9CCF1140623FA06FC0CFA06F69E4200
:1040D00003D10CF00102C2F1020251EA000C19D125
:1040E000002D17DA002C18BF022A01D0012A07D0B0
:1040F0000220FFF729FE18B0BDE8F04DFFF752BFD0
:104100000220FFF721FEFFF74DFF18B081F00041BC
:10411000BDE8F08DB7F1000C6CD1534525D104F109
:10412000804212F5801201BF00280020B74918B064
:1041300008BFBDE8F08DB548884207DC002DA1BF5F
:104140006046294618B0BDE8F08D07E0281E05DA64
:1041500080F0004118B06046BDE8F08DAF49794469
:10416000D1E9000118B0BDE8F08DDFF8A0C26345C9
:1041700025D1002D1FDA19B1514512D1D8B909E066
:10418000002840F0EC82A24A214618B062F31E01DA
:10419000BDE8F08D0020214618B060F31E01BDE897
:1041A000F08D08DA18B02346BDE8F04D0246002035
:1041B000614600F0E5BC18B02146BDE8F08D5145E0
:1041C00018DAB5F1804F0DD0A5F1005CBCF1FF5CB1
:1041D00010D1B4F1000C0DDB18B06146BDE8F04D14
:1041E00000F0ECBB234618B00246BDE8F04D19467E
:1041F00000F0A0BE060024F0004C3BD1D9B15145DF
:1042000033D1002C06DD002DA1BF0020514618B08F
:10421000BDE8F08D002C01DD002D1BDB002C13DA36
:10422000002D11DB012A4FF0000014BF78497C49B2
:1042300018B0BDE8F08D022A18BF002C0AD0012A60
:1042400008D1002C06DA0AE0002CB8BF002D11DAE4
:10425000012A04D0002018B00146BDE8F08D18B046
:1042600000204FF00041BDE8F08DA1F14050B0F1C9
:104270007F601AD0012000EBE47050EA020421D0E4
:10428000624C521E4FF0000B104304BF4FF0000B66
:10429000644C654883427CDD644A654893421FDD77
:1042A000884217DB002D25DB37E0002C00DA4AB10D
:1042B000022A0CBF01204FF0FF3018B0BDE8F04DCE
:1042C00000F0E5BD0120FFF73FFD18B0BDE8F04D5F
:1042D000FFF772BE4D4A8A4202DC002D0ADC1CE068
:1042E000814202DA002D18DA04E0484B994220DDC1
:1042F000002D12DD0220FFF727FDFFF763FE0546C4
:104300000E46002253465846214600F013FE18B0D0
:1043100066F31E012846BDE8F08D0220FFF714FD6C
:10432000FFF758FE0A46214618B062F31E01BDE8A9
:10433000F08D00223046614601F022F880460E469C
:104340006FF0010201F050F94FF05532394B00F097
:1043500025FF4246334600F0EDFD0022364B00F0CB
:104360001DFF82464246334604911046194600F02E
:10437000E1FD5246049B00F0DDFD8A4600904FF0BF
:10438000C0422E4B4046314600F0D4FD2C4A2B4B08
:1043900000E027E0CDE906015146009800F0CAFD93
:1043A00082460191274A284B4046314600F0C2FD23
:1043B0005246019B00F0E4FF82460B4602460591FF
:1043C000DDE9060100F020FBDDE906230026884632
:1043D000304600F0D5FF5246059B00F0DFFE024656
:1043E00000F07EB90020B1F5801F07DA3522304693
:1043F000614601F0F9F806466FF0340000EB2150F9
:1044000024E00000FFFF1F00FFFF0F000000F03F4F
:104410000000F07F0000404301FCFFFF0E3300006E
:104420000000F0FF0000F0BF0000E0410000F0439A
:10443000FFFFEF3F5555D53F0000E03F4715F73FE1
:10444000FE822B6544DF5DF80BAE543EA0F2FF30D8
:104450000190C1F3130040F07F6141F0405102919F
:10446000FE498842D8BF002004DDFD498142C8BF13
:10447000012001DD0D9008E000200D900198401C06
:1044800001900298A0F5801002900299F5487844B6
:104490000B910D9900EBC100D0E900230F9330463A
:1044A0000A920B9900F06CFFCDE90601DDE90A21C3
:1044B00030460F9B00F0A8FA02460B460020EA495E
:1044C00000F05EFB059102460B460090DDE9060117
:1044D00000F030FD1490E5488A464FF0000878441B
:1044E0000299006812904FF0005040EA61010D9867
:1044F0000F9B01EB804000F5002109910A9A129868
:1045000000F03EFF32460B9B00F048FE4246534609
:1045100000F010FD0646029140465146099B129A52
:1045200000F008FDDDE9062300F038FE3246029B6C
:1045300000F026FF059B009A00F0FCFC0091149A05
:10454000049053461046194600F0F4FC0646024615
:10455000C7480B46029106217844FFF7CDFCCDE910
:104560000510029B32461046194600F0E3FCDDE9D7
:10457000053200F0DFFC05910646534640461946D9
:10458000149A00F041FA009B049A00F0D3FC3246E2
:10459000059B00F039FACDE9051042465346104616
:1045A000194600F0C7FC0022B24B02910A9000F0BD
:1045B0002BFADDE9053200F027FA0E464246AD4BF4
:1045C000404600F0DDFE029B0A9A00F0D9FEDDE9CC
:1045D000053200F0E3FD424602910A903346104650
:1045E000514600F0A7FCCDE906015346149A029902
:1045F0000A9800F09FFC8A46029033464246009992
:10460000049800F097FC5346029A00F0FDF98246A8
:104610000B4602460591DDE9060100F0F5F9DDE9FA
:10462000062300208846064600F0AAFE5246059B57
:1046300000F0B4FD824609914FF060428E4B304647
:10464000414600F077FC049006918C4A8A4B504614
:10465000099900F06FFC82460291894A894B3046E5
:10466000414600F067FC5246029B00F0CDF9864BB4
:104670007B440D9A03EBC203D3E9002300F0C4F995
:104680000E900791019800F002FC0591DDE90613F8
:1046900082460E9A049800F0B7F97C4A7A440D9B42
:1046A00002EBC303D3E900230093029200F0ACF9BC
:1046B0005246059B00F0A8F900268846524630462F
:1046C000059B00F05DFE009B029A00F059FE069BE0
:1046D000049A00F055FE079B0E9A00F05FFD02461B
:1046E00000200B4602903846294600F023FC824603
:1046F00001912B4638461946029A00F041FE324697
:10470000434600F017FC5246019B00F07DF9074636
:104710008A46324643462946029800F00BFC05467D
:104720000E463A46534600F06FF9594A8846914280
:1047300021DBA8EB020353EA000210D12A463346DC
:1047400000F01EFECDE90401524A534B3846514653
:1047500000F05AF9DDE9042300F0EAFC21D202203E
:10476000FFF7F2FAFFF72EFC0A46214618B062F373
:104770001E01BDE8F08D494B28F000429A4210D34B
:10478000474A08EB020353EA00027FF4C6AD2A460B
:10479000334600F0F5FD3A46534600F0C9FC7FF67B
:1047A000BCAD0022019228F000403E493E4A01EB98
:1047B0002051824223DA481C4FF4801121FA00F084
:1047C00040443A4AC0F30A517A44394BA1F2FF31CE
:1047D000CB4020EA0303C0F3130040F48010C1F182
:1047E0001401C84012680190B8F1000FBCBF4042EC
:1047F00001902846314600F0C3FD05460E462A4684
:1048000033463846514600F0FFF84FF00008424664
:10481000284B4046059100F08DFBCDE90601264A64
:10482000264B4046059900F085FB009102902A46F0
:1048300033464046059900F0A3FD3A46534600F042
:10484000ADFC1F4A1F4B00F075FB009B029A00F065
:10485000DBF80746884602460B4635E08E98030093
:104860007AB60B00562F00000000F03F8E2F00009C
:10487000BC2E00000000084009C7EE3FFD033ADCF3
:10488000F5015B14E02F3EBE942D0000582D000072
:1048900000009040FE822B654715973C00CC90406D
:1048A00000346F3F01FCFFFF0000E03FA42C00003C
:1048B000FFFF0F00432EE63F396CA80C615C20BE61
:1048C000EF39FAFE422EE63FDDE9060100F09CF8E2
:1048D000DDE9062305460E4600F052FD3A46434602
:1048E00000F05CFC0F462A463346009010461946FD
:1048F00000F020FB824602462E4888460B460521E2
:104900007844FFF7F9FA5246434600F013FB2A4673
:10491000334600F043FC80468A463B4628463146F3
:10492000009A00F007FB3B46009A00F06DF80691F4
:10493000009000224FF080434046514600F020FD99
:104940000F460C90424653462846314600F0F2FA94
:104950003B460C9A00F014F9069B009A00F010FDFB
:104960002A46334600F00CFD0022134B00F016FCE3
:10497000054601980E4601EB00510815002810DC91
:1049800028463146019A00F02FFEFFF7A1FA0428CD
:1049900008BFFFF71FFB28463146019A00F024FEAE
:1049A00005460B4618B02A4658462146BDE8F04D4C
:1049B00000F0C0BA442B00000000F03F2DE9F041A8
:1049C00006460F4600F0F6FB041E0D4618BF0120F8
:1049D000284320F00040C0F17F6000F1E040C00FAC
:1049E0000ED0301C18BF0120384320F00040C0F129
:1049F0007F6000F1E040C00F04BF0120FFF7A4F981
:104A000020462946BDE8F08110B591EA030F48BF62
:104A100083F0004300F1BC84841A71EB030C05D2CF
:104A2000121943EB0C03001B61EB0C01DFF824E1CE
:104A30004FEA1154A4EB135C1EEA430F18BF9EEA21
:104A4000445F73D023EA0E03DCF1200E21EA045107
:104A500043F4801332D322FA0CFE10EB0E0023FA3B
:104A60000CFE41EB0E01CCF1200E03FA0EFE10EB12
:104A70000E0051F10001B1F5801FCCF1200E32D2B1
:104A800001EB045112FA0EF2BDE8104058BF704716
:104A9000401C38BF5FEA420218BF7047002814BFAD
:104AA00020F0010041F100014FEA410313F5001F1E
:104AB00038BF7047A1F1C04100F034BB012A43EB7D
:104AC0000302ACF1200CDCF11F0E32BF4FF0000EE0
:104AD00023FA0CF310EB030041EB0451B4EB115F2C
:104AE000D0D0A1EB045101F5801149085FEA3000F4
:104AF00001EB04510ED350F1000038BF12FA0EFE44
:104B000008D1BDE81040C9E7401C38BF5FEA420247
:104B1000CAD1C3E7BDE810404FEA410313F5001FB7
:104B200038BF7047A1F1C04100F0FCBA9EEA445F73
:104B300008D011EA5E0FBDE8104004BF01F000414B
:104B400000207047BDE8104070B500F09DFA00BF2E
:104B500064FBBE3E0000E0FF02494FF0000000F0A1
:104B600011BD00BF0000F87F491058BFC1F140419E
:104B70005B1058BFC3F140438B42EFF30080704796
:104B80002DE9C04130B4DFF8A0C23CEA111418BFCF
:104B90003CEA131400F0EC8081EA03051CEA1114CE
:104BA00044EAD57418BF1CEA131500F0C780A4EBC3
:104BB00005044FF0004545EAC12145EAC32341EA17
:104BC000505143EA525304F17F74994204F5003482
:104BD0004FEAC0204FEAC22208BF904200F09C80FA
:104BE0004FEA13650FF24016765D4FEA134506FB58
:104BF00005F7C7F1807706FB07F74FEAD737A7FB22
:104C000003687642C8F58038A7FB06CE38BFA8F106
:104C1000010807FB08E64FF0000EA6FB028CE6FB3E
:104C200003CEDCF1000CCEF1004E38BFAEF1010E28
:104C3000A6FB0C584FF000074FF00005E6FB0E876F
:104C4000A1FB08C6A0FB07CE16EB0E0645F100053A
:104C5000E1FB076515F1E04E7EBFA4F580345FEA05
:104C600046066D4116F1800745F100054FEA17270A
:104C70004FEA066647EA0567A6F1DE46B6F1805FB1
:104C80004FEA15251FD9384624F0010C05EBC471F5
:104C9000BCF1FE6F01EB0C1102D8F0BCBDE8008145
:104CA00024425CBF01F5801E9EEAC47F02D4F0BCA2
:104CB000BDE80081244238D4F0BCA1F1C041BDE878
:104CC000004100F02FBA4FEAD22242EA43524FEAA3
:104CD000D323A7FB02864FEAD02040EA415007FBCE
:104CE00003661EEA0E0F4FEAD12105FB026658BF8C
:104CF000A6EB0056B6EB00564FEA520E4EEAC37EC4
:104D000018EB0E0E56EB530EBDD518EB02085E41A4
:104D10007F1C55F10005B6E74FF480154FF00007F2
:104D20004FF000064FF00008ADE7F0BC4FF0000078
:104D300001F1C04101F00041BDE8008111EA0C1F02
:104D40000CEA131500D00CE013EA0C1F00F02580CC
:104D50004FF00000F0BC81EA030101F00041BDE822
:104D60000081F0BCBDE8004181EA030100F0DAB93E
:104D7000F0BCBDE8004170B500F086F9097EFC3E4C
:104D800000F007B881EA03014FF0000001F0004194
:104D9000704781EA030100F0C5B9F0BCBDE80041ED
:104DA0004FF0000021497047FFFDFBF9F7F5F4F2E1
:104DB000F0EEEDEBE9E8E6E4E3E1E0DEDDDBDAD8B6
:104DC000D7D5D4D3D1D0CFCDCCCBCAC8C7C6C5C414
:104DD000C2C1C0BFBEBDBCBBBAB9B8B7B6B5B4B32B
:104DE000B2B1B0AFAEADACABAAA9A8A8A7A6A5A416
:104DF000A3A3A2A1A09F9F9E9D9C9C9B9A999998DA
:104E00009797969595949393929191908F8F8E8E7C
:104E10008D8C8C8B8B8A8989888887878685858409
:104E200084838382828181800000FF070000F87FF5
:104E30004FEA41034FEA5353A3F58063D3F11E03B6
:104E4000C8BFD3F1210C0CDD4FF0004242EAC12271
:104E500042EA505232FA03FC8CEAE17CACEBE1709E
:104E60007047102BC4BF0020704703F5787CBCF15D
:104E7000FF3F04D06FF0004282EA2100704770B516
:104E800000F002F94992248000207047F2E710F008
:104E9000004248BF4042B0FA80F310FA03F10AD052
:104EA000C3F11D0303F580634FEA415002EB035247
:104EB00002EBD12170474FF00000704751EA030C1C
:104EC00017D41CF5801F58BFBCF5801F00F1068069
:104ED000994218BF704708BF9042704707D711F535
:104EE000801F58BF13F5801F19D49942704789421B
:104EF00070471CF5801F08D5BCF5801FF7D58B4285
:104F000018BF704708BF824270474FF4001C1CEB6B
:104F1000410F38BF1CEB430F01D28B42704770B575
:104F200000F0B2F8922449004FF000514FF0805346
:104F3000FFF71ABEDFF848C170B51CEA111E1EBF8C
:104F40001CEA13159EEA0C0F95EA0C0F00F06F8017
:104F500081EA030423EA4C134EEAD47E21EA4C1181
:104F600041F4801143F48013AE44A1FB024CA0FB3A
:104F70000365AEF17F7E361955EB0C05A1FB034CA2
:104F80004CF10003A0FB021C16EB0C06654153F12B
:104F90000003094218BF46F0010613F4007F0BD14D
:104FA0004FEA03314FEA0530340341EA155140EA34
:104FB00016506FF003020AE04FEAC3214FEAC52002
:104FC000F40241EA555140EA56506FF0020202EBFA
:104FD0002E4201EB025585EACE710AD05FEA440CFD
:104FE00018BF24F0004450F1000041F1000120EA14
:104FF000D47040F2FE7C624500D270BDA84214BF5E
:105000004FF080444FF04044002E08BF0024BEF112
:10501000806FA8BFA1F1C041BDE8704080F28280DE
:105020004FF0000001F1C04101F0004170479EEADD
:105030000C0F0CEA131518BF95EA0C0F06D04FF0B1
:10504000000081EA030E0EF0004170BD00F01CF874
:105050008900013E00F007B800F009B84FEA430CA0
:105060005FEA5C5C08D081EA030100F05BB84FEABC
:10507000410C5FEA5C5CF6D14FF0000001497047DB
:105080000000FF070000F87F0EF1020E2EF0030E65
:105090005EF8046B364205D4012A43EB030515F58F
:1050A000001F12D8012841EB010C1CF5001F0CD881
:1050B0000ED14FEAD17C15F5001F0CEB4C0C0CF116
:1050C000020C08BF4CEBD37C04E04FF0080C01E06D
:1050D0004FEAD37C0CEB4C0526FA05F606F00706E2
:1050E000B6F1040C06D20EEB860CBDE870404CF015
:1050F000010C6047DFE80CF0090B02024FF00041A1
:105100004FF00000A1F5002170BD1946104601289E
:1051100051EB010418BFD4F5001484BF002001F046
:10512000004170BD0808A0F500114FEA3101704739
:1051300053EA010C17D41CF5801F58BFBCF5801F23
:1051400000F106808B4218BF704708BF824270474B
:1051500007D713F5801F58BF11F5801F19D48B4254
:1051600070479B4270471CF5801F08D5BCF5801F17
:10517000F7D5994218BF704708BF904270474FF467
:10518000001C1CEB430F38BF1CEB410F01D29942AE
:1051900070470FB40CBC03BCFFF7C1BE91EA030F0C
:1051A00010B581F000413FF537AC83F0004300F0CB
:1051B000EFB800002DE9F04101F5801CBCF5001F9F
:1051C000C0F2C3804FEA115C21EA0C510CF1FD0CD6
:1051D00041F480115FEA5C0C0CF5C07C01D3400007
:1051E00049413DA4890241EA905187028E0E0A0C82
:1051F000A45D04FB04F602FB06F6C6F14046A4FBE0
:105200000662F60D46EA422606FB06F4A4FB0123DD
:105210005242C3F1404338BF5B1EA6FB024200244A
:10522000E6FB0324D20B42EA4446A6FB0623A1FB7D
:1052300002E2A3FB07E4A4184FF0000252F10002BF
:10524000E3FB01426442C2F1404E38BFAEF1010EB1
:10525000A6FB04234FF00002E6FB0E32A2FB03463E
:105260004FF00004B61954F10004E2FB0264A1FB04
:1052700006E6A4FB07E816EB08064FF0000858F115
:105280000008E4FB01687642C8F1405838BFA8F135
:105290000108A2FB06E4A3FB08E52D194FF000046A
:1052A00054F10004E2FB0854A1FB05E6A7FB04E867
:1052B00018EB06084FF0000656F10006E1FB0486E5
:1052C00018F1200556F10006A809A8F11B08B1093C
:1052D00008F03F08B8F10A0F40EA86601CD901EBDC
:1052E0000C51BDE8F08100BFFCF5EEE8E2DDD8D35B
:1052F000CFCBC7C3C0BDB9B6B4B1AEACA9A7A5A347
:10530000A19F9D9B9A9896959392908F8D8C8B8957
:105310008887868584838281A0FB006800FB01F278
:1053200008EB4208B8EB872807D5341858EB01047E
:10533000D5D5401C51F10001D1E7341A78EB0104B6
:10534000CDD4401E71F10001C9E75FEA4C0C5FEA61
:105350009C5C0DD105D34FF0000001F00041BDE889
:10536000F081BDE8F04170B5FFF78EFE6DDBFFBE4A
:10537000BDE8F0414FF00000004970470000F87FA1
:1053800010B591EA030F48BF83F000433FF544ABEB
:10539000841A71EB030C07D212198CF0004C43EB0A
:1053A0000C03001B61EB0C01DFF8A4E14FEA115480
:1053B000A4EB135C1EEA430F18BF9EEA445F00F0A3
:1053C000B08023EA6E03524221EA0451C3EB6E031C
:1053D00038BF5B1EDCF1200E25D322FA0CFE10EB49
:1053E0000E0043FA0CFE41EB0E01CCF1200E03FA45
:1053F0000EFE10EB0E0051F10001CCF1200E29D46D
:1054000012FA0EF201EB0451BDE8104058BF70478C
:10541000401C1CBFB2F1004F704700280CBF491C54
:1054200020F00100704712EB020E43EB030218BF9D
:105430004FF0010E4EEA4202ACF1200CDCF11E0EE0
:1054400054D943FA0CFE10EB0E0051F1FF31CCF1B0
:105450001E0ED5D50EF1010E12FA0EFE404141EBA3
:10546000010101EB445C5FEA5C5C10D910EBDE707B
:1054700001EB045138BFBEF1004FBDE8104018BF2A
:10548000704700280CBF491C20F00100704730D243
:105490004FEAD42C11F5001124F400641BD0B1FAAA
:1054A00081F20B3AA41AA41ED2F12003914030FAE3
:1054B00003F31943904001EBCC71002C01EB045134
:1054C000BDE81040A8BF704701F1C0414FF0000097
:1054D00001F000417047B0FA80F310FA03F100D1F7
:1054E00010BDE41A173C4805C90AE4E701EB045172
:1054F00010BD491001EB0451BDE810404FEA3000E7
:1055000002E04FF0000170474A0008BF0042F8D0A7
:10551000B2F5001F28BF704701F000414FF00000B6
:1055200070479EEA445F07D011EA5E0FBDE8104065
:1055300004BF002100207047BDE8104070B5FFF7A0
:10554000A3FD00BF40DFF63E83F0004110467047E8
:105550000000E0FF10F0004148BF4042B0FA80F385
:1055600010FA03F2C3F19D030BD051EAC35101EBD2
:105570001220530638BF704700F1010008BF20F029
:10558000010070470CF00F03092B08BF082000F042
:1055900059800A2B0BD0082B18BF704708BF1CF08E
:1055A000400F0AD04FF000004FF0000170471CF090
:1055B000400F18BF4FF0004070471CF0100F08D08C
:1055C00020F0704300F07F4242EAD3014FEA43707B
:1055D000704700F0604021F07F4242EA000201F093
:1055E0007F4040EA727070474FF0FF0C4CF4E06C63
:1055F0001CEA11531CBF9CEA030C9445C2BFDA425B
:1056000001EB02517047002B0DD0BCF1000F0FD001
:10561000002A01F00041A4BF41F0E04141F07F6168
:105620004FF00000704701F000414FF0000070475C
:1056300050EA01334FF09B0C18BF4CF0806C7FF4A4
:105640008BAA70471CF4801F11D01CF4E02F03D0EC
:105650006FEACC31490070474FF04050EFF30082C1
:1056600022F0704242EA000282F3008870474FF055
:10567000000070470000000000000000002F000044
:1056800000000700070000147F147F1400242A7F05
:105690002A12006264081323003649552250000084
:1056A0000503000000001C224100000041221C00F4
:1056B0000014083E08140008083E0808000000A076
:1056C0006000000808080808000060600000002072
:1056D00010080402003E5149453E0000427F400050
:1056E000004261514946002141454B3100181412D6
:1056F0007F10002745454539003C4A4949300001A3
:105700007109050300364949493600064949291EF1
:105710000000363600000000563600000008142253
:105720004100001414141414000041221408000253
:105730000151090600324959513E007C1211127C78
:10574000007F49494936003E41414122007F4141A5
:10575000221C007F49494941007F09090901003E97
:105760004149497A007F0808087F0000417F4100D5
:10577000002040413F01007F08142241007F40404B
:105780004040007F020C027F007F0408107F003E33
:105790004141413E007F09090906003E4151215E19
:1057A000007F091929460046494949310001017F16
:1057B0000101003F4040403F001F2040201F003FAC
:1057C0004038403F0063140814630007087008075E
:1057D00000615149454300007F41410000552A5571
:1057E0002A55000041417F000004020102040040EC
:1057F000404040400000010204000020545454780E
:10580000007F48444438003844444420003844442D
:10581000487F00385454541800087E0901020018CB
:10582000A4A4A47C007F080404780000447D400008
:10583000004080847D00007F102844000000417FEC
:105840004000007C04180478007C080404780038C8
:105850004444443800FC242424180018242418FC50
:10586000007C0804040800485454542000043F44B9
:105870004020003C4040207C001C2040201C003C7C
:105880004030403C004428102844001CA0A0A07CCC
:10589000004464544C441414141414140000000004
:1058A00000000000000000000000FC0000000000FC
:1058B00002000000000C020C0200000000000000CA
:1058C00090D0BCD0BC900003000300001824FE441C
:1058D0008C000302070201001824D8B04C8000039A
:1058E00000010201C038E438E000010202010202B6
:1058F000080600000000000000000000000000F8A2
:105900000402000000010204000204F80000000488
:10591000020100009060F8609000000001000000AB
:105920002020FC20200000000100000000000000FA
:1059300000000806000000002020202020000000B9
:105940000000000000000000000000020000000055
:105950000080601C0200040300000000F80404043E
:10596000F8000102020201000008FC000000000231
:1059700003020000188444241800030202020200FB
:1059800008042424D80001020202010040B088FC6F
:1059900080000000000302003C242424C400010213
:1059A00002020100F824242CC000010202020100BE
:1059B0000C04E41C0400000003000000D82424248C
:1059C000D80001020202010038444444F8000003F8
:1059D00002020100000010000000000002000000B0
:1059E0000000200000000000060000000020508899
:1059F00004020000000001029090909090000000CE
:105A00000000000000020488502000020100000095
:105A10001804C4241800000002000000F804E494F4
:105A2000F80001020202020000E09CF08000020384
:105A30000000030204FC2424D80002030202010037
:105A4000F80404040C0001020202010004FC040436
:105A5000F80002030202010004FC24740C0002039B
:105A60000202030004FC24740C0002030200000084
:105A7000F0080444CC4000010202010004FC202094
:105A8000FC040203000003020404FC0404000202FC
:105A900003020200000404FC0404060404030000E2
:105AA00004FC24D00C0402030200030204FC0400E2
:105AB0000000020302020203FC3CC03CFC000300A5
:105AC0000300030004FC30C4FC04020302000300D2
:105AD000F8040404F80001020202010004FC24247A
