:020000040800F2
:10000000A00C002055040008590200085B020008FB
:100010005F02000863020008670200080000000099
:100020000000000000000000000000006B0200085B
:100030006D020008000000006F0200087102000855
:100040006F0400086F0400086F0400086F040008C4
:100050006F0400086F0400086F2700086F04000891
:100060006F0400089B270008BF2700086F040008E2
:100070006F0400086F0400086F0400086F04000894
:100080006F0400086F0400086F0400086F04000884
:100090006F0400086F0400086F0400086F04000874
:1000A0006F0400086F0400086F0400086F04000864
:1000B00023240008E1370008032300086F04000828
:1000C0006F0400086F0400086F0400086F04000844
:1000D0006F0400081F2100086F0400086F04000867
:1000E0006F0400086F0400086F0400086F04000824
:1000F0006F0400086F0400086F0400086F04000814
:100100006F0400086F0400086F0400086F04000803
:100110006F0400086F0400086F0400086F040008F3
:100120006F0400086F0400086F0400086F040008E3
:1001300000F002F800F03CF80AA090E8000C8244BD
:100140008344AAF10107DA4501D100F031F8AFF29A
:10015000090EBAE80F0013F0010F18BFFB1A43F0A5
:10016000010318477459000094590000103A24BF45
:1001700078C878C1FAD8520724BF30C830C144BF0C
:1001800004680C607047000000230024002500264E
:10019000103A28BF78C1FBD8520728BF30C148BFEA
:1001A0000B6070471FB503F07EFB1FBD10B510BD7F
:1001B00003F0CFFB1146FFF7F5FF00F023F803F043
:1001C000EDFB03B4FFF7F2FF03BC01F05BFF00009F
:1001D0000B49D1F800C04A685CF8043B1068184429
:1001E00042F8040B8C4528BFA1F1DC0C8A4228BFE1
:1001F000A1F1DC02C1F800C04A6020F00040704765
:100200003406002001F0D4FE02F056FF4FF4FA301D
:1002100001F047FF01F0C8FF002141F61F4001F047
:10022000D7FF02F023F802F041FA03F018F941F683
:100230001F41632002F09CF80BE002F0DFFF012079
:100240000449087003F062F900BF024800780028F2
:10025000FBD1F2E75E000020704700BFFEE700BF61
:10026000FEE700BFFEE700BFFEE77047704770473C
:10027000704700000CB50020019000906C480068A9
:1002800040F480306A49086000BF6948006800F4A3
:10029000003000900198401C0190009818B9019816
:1002A000B0F5A06FF1D16248006800F4003010B1E1
:1002B0000120009001E0002000900098012843D127
:1002C0005C48006840F010005A4908600846006821
:1002D00020F0030008600846006840F00200086053
:1002E000534840685249486008464068486008469C
:1002F000406840F4806048600846406820F47C1004
:1003000048600846406840F4E810486008460068C5
:1003100040F08070086000BF4548006800F0007041
:100320000028F9D04248406820F003004049486066
:100330000846406840F00200486000BF3C48406802
:1003400000F00C000828F9D10CBD10B5FFF792FFA2
:1003500010BD10B53648006840F00100344908600F
:1003600008464068344908403149486008460068FA
:10037000324908402E4908600846006820F4802071
:1003800008600846406820F4FE0048604FF41F00F3
:100390008860FFF7DAFF4FF000602949086010BD60
:1003A00010B5002100200022214B5B6803F00C01F6
:1003B00021B1042906D0082928D107E0214B224C7D
:1003C000236027E01F4B204C236023E0184B5B6821
:1003D00003F47010164B5B6803F48032022303EBC6
:1003E000904022B9194B4343174C23600DE0104B4A
:1003F0005B6803F4003323B1144B4343124C236076
:1004000003E0104B4343104C236003E00D4B0E4CB4
:10041000236000BF00BF064B5B68C3F303130C4CA3
:10042000E15C094B1B68CB40074C236010BD00000A
:1004300000100240002002400000FFF8FFFFF6FE1F
:1004400008ED00E000127A002000002000093D00C5
:10045000240000200948804709480047FEE7FEE7DE
:10046000FEE7FEE7FEE7FEE7FEE7FEE7FEE7FEE764
:1004700004480549054A064B70470000530300082D
:1004800031010008A0060020A00C0020A0080020D8
:10049000A008002031490143314A1160704770B50E
:1004A000002100230F22C47804B32D4C246804F4E7
:1004B000E064C4F5E064210AC1F10403CA40447851
:1004C00004FA03F18478144021430901254C06788D
:1004D000A155047804F01F050124AC4005786D1186
:1004E000AD0005F1E025C5F8004109E0047804F00D
:1004F0001F050124AC401C4D0678761145F82640B6
:1005000070BD1A4A0A400243154B1B1F1A60704700
:1005100039B1134A121D12680243114B1B1D1A6098
:1005200006E00F4A121D126882430D4B1B1D1A6014
:100530007047042808D14FF0E021096941F0040117
:100540004FF0E022116107E04FF0E021096921F04E
:1005500004014FF0E0221161704700000000FA052D
:100560000CED00E000E400E080E100E080FFFF1F10
:10057000002044490860091D0860091D0860091D24
:10058000086041483F4914310860704700213D49E7
:100590008279002A3AD00A46126803689A430B46C9
:1005A0001A600A1D126803689A430B1D1A600279CB
:1005B00011440A6803681A430A60324A0832126812
:1005C00003689A432F4B08331A601A1D1268036898
:1005D0009A432C4B0C331A604279102A0ED11A1F01
:1005E000126803681A43274B08331A601A1D1268F1
:1005F00003681A43234B0C331A600DE021494279FA
:1006000011440A6803681A430A6005E0027911443C
:100610000A6803689A430A6070470021016001710B
:100620000C21417100218171704716491031096810
:100630000143144A10321160704701460020114AEC
:10064000143212680A400AB1012000E0002070470D
:100650000C49143108607047014600200022094B04
:100660001B6803EA0102074B14331B680B4013B1EC
:100670000AB1012000E000207047024914310860EF
:100680007047000000040140FFFF0F0010B5044652
:10069000CC48844208D10121042000F02DFB002128
:1006A000042000F029FB46E0C748844208D101211C
:1006B000082000F021FB0021082000F01DFB3AE09B
:1006C000C248844208D10121102000F015FB00210E
:1006D000102000F011FB2EE0BD48844208D101211A
:1006E000202000F009FB0021202000F005FB22E083
:1006F000B848844208D10121402000F0FDFA0021D1
:10070000402000F0F9FA16E0B348844208D10121F4
:10071000802000F0F1FA0021802000F0EDFA0AE0DC
:10072000AE48844207D10121801500F0E5FA00218E
:10073000A01500F0E1FA10BD10B50121084600F047
:10074000DBFA0021012000F0D7FA10BD2DE9F041BD
:10075000024600250026002000230024002791F8EF
:1007600003C00CF00F0591F803C00CF0100CBCF1A5
:10077000000F03D091F802C04CEA050591F800C0C3
:10078000BCF1000F31D0146800202BE04FF0010CB9
:100790000CFA00F3B1F800C00CEA03069E4220D127
:1007A00083004FF00F0C0CFA03F7BC4305FA03FC6F
:1007B0004CEA040491F803C0BCF1280F06D14FF0B5
:1007C000010C0CFA00FCC2F814C00AE091F803C056
:1007D000BCF1480F05D14FF0010C0CFA00FCC2F837
:1007E00010C0401C0828D1D31460B1F800C0BCF17F
:1007F000FF0F34DD546800202EE000F1080C4FF0AC
:10080000010808FA0CF3B1F800C00CEA03069E4296
:1008100021D183004FF00F0C0CFA03F7BC4305FA0B
:1008200003FC4CEA040491F803C0BCF1280F05D185
:1008300000F1080C08FA0CF8C2F8148091F803C013
:10084000BCF1480F07D100F1080C4FF0010808FA7D
:100850000CF8C2F81080401C0828CED35460BDE8C4
:10086000F0814FF6FF710180022181700421C17077
:1008700070470246002093680B400BB1012000E056
:10088000002070470146886880B270470246002009
:10089000D3680B400BB1012000E0002070470146F7
:1008A000C86880B2704701617047416170470AB102
:1008B000016100E041617047C16070474FF48032D0
:1008C0000A4382618161826182698269704702465E
:1008D0000020434B18684FF68073184040EA02101E
:1008E00008433F4B186070473E49C8617047F0B5F8
:1008F0000A46002300240021002500F00046B6F13E
:10090000004F02D1364EF16901E0354E7168C0F3F7
:10091000034583B200F44016B6F5401F08D121F01C
:1009200070612F4E766826F070662D4F7E6012E063
:1009300000F48016B6F5801F06D1032606FA05F4EA
:10094000A14341F0706106E0460D360103FA06F658
:10095000B14341F0706122B1460D360103FA06F64B
:10096000314300F00046B6F1004F02D11C4EF16158
:1009700001E01B4E7160F0BD30B500228B071C0FEB
:100980000F2303FA04F2164B08338C1053F824306B
:100990009343134C08348D1044F8253023468C10B3
:1009A00053F824308C07240F00FA04F423430C4C32
:1009B00008348D1044F8253030BD0A49DC31086018
:1009C0007047000000080140000C01400010014089
:1009D0000014014000180140001C014000200140AB
:1009E0000000014000002042DF48006840F00100A4
:1009F000DD49086008464068DC490840DA4948603B
:100A000008460068DA490840D74908600846006887
:100A100020F4802008600846406820F4FE0048600A
:100A20004FF41F0088607047CF49096821F4803176
:100A3000CD4A11601146096821F480211160B0F59A
:100A4000803F03D0B0F5802F0ED106E0C64909687B
:100A500041F48031C44A116007E0C349096841F498
:100A6000A021C14A116000E000BF00BF704710B56F
:100A700001460022002300204A11012A02D1BA4C6B
:100A8000236806E0022A02D1B74C236A01E0B64C83
:100A9000636A01F01F02012494401C400CB1012044
:100AA00000E0002010BD38B5002000900024002593
:100AB00000BF3120FFF7DBFF05460098401C009087
:100AC0000098B0F5A06F01D0002DF2D03120FFF7D3
:100AD000CEFF08B1012400E00024204638BD0146C5
:100AE0000020A14A106820F0F80040EAC100106020
:100AF0007047A04908607047024600209A4B58682A
:100B000020F47C1042EA01031843974B5860704769
:100B100098490866704701460020934A506820F0C3
:100B200003000843506070478F48406800F00C0095
:100B30007047014600208C4A506820F0F0000843BE
:100B40005060704701460020874A506820F4E060FA
:100B500008435060704701460020834A506820F4E3
:100B6000605040EAC1005060704729B17E4A527A15
:100B700002437D4B5A7204E07B4A527A82437A4B9D
:100B80005A7270477B49D83108607047014600208F
:100B9000754A506820F44040084350607047002177
:100BA000714A20321170704A82F82010012802D058
:100BB00004280AD104E001216B4A2032117005E0BB
:100BC0000521694A2032117000E000BF00BF704764
:100BD0006949086070476449096A0143624A1162C1
:100BE0007047654944390860704730B500210022DC
:100BF000002400235C4D6D6805F00C0121B104292F
:100C000005D0082923D105E05C4D056022E05B4D4D
:100C100005601FE0544D6D6805F47012524D6D680B
:100C200005F48034022505EB92421CB9544D55431E
:100C300005600BE04C4D6D6805F400351DB1504D5D
:100C40005543056002E04D4D5543056002E04B4DB4
:100C5000056000BF00BF444D6D6805F0F001090953
:100C6000484D6B5C0568DD4045603F4D6D6805F49F
:100C7000E061090A434D6B5C4568DD4085603A4D93
:100C80006D6805F46051C90A3E4D6B5C4568DD40F6
:100C9000C560354D6D6805F44041890B3A4D6B5C7C
:100CA000C568B5FBF3F5056130BD29B12E4A52691F
:100CB00002432D4B5A6104E02B4A526982432A4B6E
:100CC0005A61704729B1284A92690243264B9A61BA
:100CD00004E0254A92698243234B9A61704729B107
:100CE000214AD2690243204BDA6104E01E4AD269EC
:100CF00082431D4BDA61704729B11B4AD268024317
:100D0000194BDA6004E0184AD2688243164BDA6065
:100D1000704729B1144A12690243134B1A6104E067
:100D2000114A12698243104B1A61704712494039C7
:100D3000086070470F49C86470470B49C871704715
:100D40000948406A40F08070074948627047014690
:100D50000020054A92680A400AB1012000E0002004
:100D60007047014988727047001002400000FFF888
:100D7000FFFFF6FE000042428004424200127A0069
:100D800000093D00340000204400002010B5044656
:100D9000FE48844208D10121C014FFF7ADFF0021B5
:100DA000E014FFF7A9FFC4E0B4F1804F08D101219E
:100DB0000846FFF7AEFF00210120FFF7AAFFB8E0C9
:100DC000F348844208D101210220FFF7A2FF00214D
:100DD0000220FFF79EFFACE0EE48844208D10121DB
:100DE0000420FFF796FF00210420FFF792FFA0E008
:100DF000E948844208D101210820FFF78AFF002139
:100E00000820FFF786FF94E0E448844208D10121DE
:100E10001020FFF77EFF00211020FFF77AFF88E007
:100E2000DF48844208D101212020FFF772FF002112
:100E30002020FFF76EFF7CE0DA48844208D10121D0
:100E40004014FFF759FF00216014FFF755FF70E0D1
:100E5000D548844209D10121C804FFF74DFF002184
:100E60004FF40020FFF748FF63E0D048844209D1E7
:100E700001210805FFF740FF00214FF48010FFF724
:100E80003BFF56E0CA48844209D101214805FFF7DB
:100E900033FF00214FF40010FFF72EFF49E0C54853
:100EA000844208D101214020FFF733FF0021402078
:100EB000FFF72FFF3DE0C048844208D10121802088
:100EC000FFF727FF00218020FFF723FF31E0BB4819
:100ED000844208D101218015FFF71BFF0021A015D6
:100EE000FFF717FF25E0B648844209D10121080425
:100EF000FFF702FF00214FF48030FFF7FDFE18E0FE
:100F0000B048844209D101214804FFF7F5FE0021D1
:100F10004FF40030FFF7F0FE0BE0AB48844208D1FD
:100F200001218804FFF7E8FE00214FF48020FFF73D
:100F3000E3FE10BD00220288944B98420ED0994BDC
:100F400098420BD0B0F1804F08D0914B984205D019
:100F5000904B984202D0904B984204D14FF68F7339
:100F60001A404B881A438D4B984207D08C4B9842BD
:100F700004D04FF6FF431A40CB881A4302808B8877
:100F800083850B880385814B98420BD0854B984213
:100F900008D08B4B984205D08A4B984202D08A4B9E
:100FA000984201D10B7A038601238382704770B582
:100FB000002400220023058C4FF6FE763540058480
:100FC000028C8388048B4FF68F752C40B51E2C4005
:100FD0000D882C43751E2A400D892A434D882A43CB
:100FE0006A4DA8420BD06F4DA84208D0744DA8425C
:100FF00005D0744DA84202D0734DA84213D14FF6CC
:10100000F7752A404D892A434FF6FB752A408D8893
:101010002A434FF6FF652B404FF6FF552B408D8935
:101020002B43CD892B4383800483CD88858602841E
:1010300070BD70B5002400220023058C4FF6EF76BA
:1010400035400584028C8388048B48F6FF752C405C
:101050004FF6FF452C400D884FF6FF7606EA052532
:101060002C434FF6DF752A400D8906EA05152A4301
:101070004D8806EA05152A43444DA84202D0494D41
:10108000A8421DD14FF67F752A404D894FF6FF7655
:1010900006EA05152A434FF6BF752A408D8806EAF1
:1010A00005152A434FF6FF352B404FF2FF752B40B5
:1010B0008D8906EA85052B43CD8906EA85052B43F4
:1010C00083800483CD880587028470BD70B50024B9
:1010D00000220023058C4FF6FF6635400584028C04
:1010E0008388848B4FF68F752C404FF6FC752C400F
:1010F0000D882C434FF6FF552A400D894FF6FF7699
:1011000006EA05252A434D8806EA05252A431F4D90
:10111000A84202D0234DA8421DD14FF2FF752A40AC
:101120004D894FF6FF7606EA05252A434FF6FF352F
:101130002A408D8806EA05252A434EF6FF752B4086
:101140004DF6FF752B408D8906EA05152B43CD8999
:1011500006EA05152B4383808483CD888587028426
:1011600070BD70B5002200230024058C4EF6FF767A
:1011700035400584038C8488828B48F6FF752A40AD
:101180004FF6FF452A400D8820E00000002C01406A
:101190000004004000080040000C00400010004027
:1011A0000014004000340140004C01400050014058
:1011B0000054014000180040001C00400020004086
:1011C0000040014000440140004801404FF6FF76D6
:1011D00006EA05252A434DF6FF752B400D8906EAE0
:1011E00005352B434D8806EA05352B43FA4DA842B9
:1011F00002D0FA4DA84208D14BF6FF752C408D89DC
:101200004FF6FF7606EA85152C4384808283CD88CD
:10121000A0F84050038470BD828B4FF2FF331A4018
:101220008283828B4FF6FF7303EA01231A43828382
:101230007047F0B50C461546002200210026078CA9
:101240004EF6FF7C07EA0C070784828B018C4FF671
:10125000FF7707EA043640F6FF473A404FF6FF773C
:1012600007EA05273A434FF6FF7707EA03373A4381
:10127000D94FB8420ED0D94FB8420BD0B0F1804F01
:1012800008D0D74FB84205D0D64FB84202D0D64F7B
:10129000B84206D14DF6FF77394046F480573943BE
:1012A00005E047F6FF57394044F4805739438283BD
:1012B0000184F0BD828B4FF6F3731A408283828BD8
:1012C0000A4382837047F0B50C4615460022002180
:1012D0000026078C4FF6FF6C07EA0C070784828B09
:1012E000018C4FF6FF7707EA04264FF60C773A4059
:1012F0004FF6FF7707EA03172F433A43B64FB8423A
:101300000ED0B64FB8420BD0B0F1804F08D0B44FDA
:10131000B84205D0B34FB84202D0B34FB84206D15D
:101320004FF6FF57394046F48077394305E04FF2D6
:10133000FF57394044F48077394382830184F0BDFC
:10134000028B4FF2FF331A400283028B4FF6FF737A
:1013500003EA01231A4302837047F0B50C46154691
:10136000002200210026078C4FF6EF7C07EA0C07CD
:101370000784028B018C4FF6FF7707EA041640F6CC
:10138000FF473A404FF6FF7707EA03373A434FF6F5
:10139000FF7707EA05273A438F4FB8420ED08F4FA9
:1013A000B8420BD0B0F1804F08D08D4FB84205D075
:1013B0008C4FB84202D08C4FB84206D14FF6DF773F
:1013C000394046F01007394305E04FF65F77394062
:1013D00044F01007394302830184F0BD028B4FF6BD
:1013E000F3731A400283028B0A4302837047F0B5FD
:1013F0000C46154600220021068C4FF6FE773E4033
:101400000684028B018C4FF60C7632407E1C06EA75
:1014100003162E433243704EB0420ED06F4EB04290
:101420000BD0B0F1804F08D06D4EB04205D06D4E5C
:10143000B04202D06C4EB04206D14FF6FD7631403C
:1014400044F00106314305E04FF6F576314044F0B3
:101450000106314302830184F0BD70B505460C4698
:101460005D4885420ED05D4885420BD0B5F1804F76
:1014700008D05B48854205D05A48854202D05A4878
:10148000854200D100E000BF208850B92389A2889E
:1014900061882846FFF7ABFFE1882846FFF79EFFEB
:1014A00025E0208804280AD12389A288618828465B
:1014B000FFF753FFE1882846FFF742FF17E0208837
:1014C00008280AD12389A28861882846FFF7FBFEF5
:1014D000E1882846FFF7EEFE09E02389A2886188AB
:1014E0002846FFF7A6FEE1882846FFF795FE70BD67
:1014F0002DE9F04105460C4600260127608808B911
:10150000022600E00026A088012801D1022700E081
:1015100001272088A0B92389A28861882846FFF77F
:1015200066FFE1882846FFF759FF23893A4631468E
:101530002846FFF712FFE1882846FFF701FF13E076
:101540002389A28861882846FFF707FFE18828469B
:10155000FFF7F6FE23893A4631462846FFF747FF54
:10156000E1882846FFF73AFFBDE8F0810A884B88FA
:101570001A438B881A43CB881A430B891A434B8929
:101580001A438B891A43A0F8442070474FF6FF7125
:10159000818000210180C18041800172704700215B
:1015A000018041808180C180018141818181C1812F
:1015B0007047002101804180012181800021C1808C
:1015C000018170470021018041808180C1800181BB
:1015D0004181818170470000002C014000340140AE
:1015E0000004004000080040000C004021B10288C7
:1015F00042F00102028004E002884FF6FE731A40B6
:101600000280704731B1B0F8442042F40042A0F8A3
:10161000442005E0B0F84420C2F30E02A0F84420B4
:1016200070471AB183890B43838102E083898B431E
:10163000838170478182704741EA0203A0F84830F5
:1016400070471AB183890B43838102E083898B43FE
:101650008381704701894FF6F8721140018170470C
:101660000A46002101894FF68F7319401143018109
:10167000704730B504460D4629462046FFF7F0FF77
:10168000208940F00700208130BD2DE9F04104465B
:101690000D4616461F46602D06D13B4601223146B7
:1016A0002046FFF75AFE05E03B4601223146204620
:1016B000FFF79DFE29462046FFF7D2FF208940F024
:1016C00007002081BDE8F08130B50C46002101897A
:1016D000C9B24FF6FF7505EA032515432543294393
:1016E000018130BD2DE9F04105460E46174698466A
:1016F000002443463A4631462846FFF7E5FF2C8949
:101700004FF6F870044044F007044FF68F70044021
:1017100044F070042C81BDE8F081F0B504460D461C
:1017200016461F463B46324629462046FFF7CCFF69
:10173000208940F480402081F0BD0185828270477D
:101740000A46002101884FF68F731940114301802A
:101750007047F0B50C4615461E46002100220023B6
:101760000189028B038C4FF6F877394021434FF6FD
:10177000FC473A4040F201173A434FF6DD773B40D1
:101780004FF6FF7707EA06172F433B430181028399
:101790000384F0BD0A460021018B4FF68F73194078
:1017A0001143018370470A460021018B48F6FF73FD
:1017B00019404FF6FF7303EA022319430183704770
:1017C0000A460021818B4FF68F73194011438183A4
:1017D00070470A460021818B48F6FF7319404FF687
:1017E000FF7303EA022319438183704721B1028802
:1017F00042F08002028004E002884FF67F731A40B4
:101800000280704721B1828842F00402828004E0A5
:1018100082884FF6FB731A408280704721B182881C
:1018200042F00802828004E082884FF6F7731A4083
:101830008280704721B1828842F00102828004E0F8
:1018400082884FF6FE731A40828070470A46002154
:10185000018B4FF6F77319401143018370470A4615
:101860000021018B4FF2FF7319404FF6FF7303EA1B
:1018700002231943018370470A460021818B4FF6EA
:10188000F77319401143818370470A460021818B09
:101890004FF2FF7319404FF6FF7303EA0223194317
:1018A000818370470A460021018B4FF6FB73194074
:1018B0001143018370470A460021018B4FF6FF3325
:1018C00019404FF6FF7303EA02231943018370475F
:1018D0000A460021818B4FF6FB7319401143818327
:1018E00070470A460021818B4FF6FF3319404FF6AF
:1018F000FF7303EA02231943818370470A460021DC
:10190000018B4FF67F7319401143018370470A46DC
:101910000021018BC1F30E014FF6FF7303EA02238E
:101920001943018370470A460021818B4FF67F736C
:1019300019401143818370470A460021818BC1F30E
:101940000E014FF6FF7303EA0223194381837047A8
:101950000A460021018C4FF6FD73194011430184A2
:1019600070470A460021018C4FF6F7731940114366
:10197000018470470A460021018C4FF6DF7319403D
:101980004FF6FF7303EA02131943018470470A46B6
:101990000021018C4FF67F7319404FF6FF7303EA65
:1019A00002131943018470470A460021018C4FF647
:1019B000FF5319404FF6FF7303EA022319430184D2
:1019C00070470A460021018C4FF2FF7319404FF611
:1019D000FF7303EA02231943018470470A4600217A
:1019E000018C4DF6FF7319404FF6FF7303EA023383
:1019F00019430184704730B5002301248C40A3B201
:101A0000048C9C430484048C02FA01F5ADB22C438F
:101A1000048430BD30B5002304248C40A3B2048C70
:101A20009C430484048C02FA01F5ADB22C43048477
:101A300030BD70B50346002000241846183001253B
:101A40008D40ACB21D8CA5431D8409B1082909D174
:101A500000EB6100056825F0700505600568154319
:101A600005600EE00D1FC5F34E052844056825F4FA
:101A7000E045056005684FF6FF7606EA0226354325
:101A8000056070BD21B1028842F00202028004E0CC
:101A900002884FF6FD731A400280704721B1028818
:101AA00042F00402028004E002884FF6FB731A4001
:101AB0000280704721B1828842F08002828004E077
:101AC00082884FF67F731A408280704702884FF6F3
:101AD000F7731A40028002880A43028070478288A6
:101AE0004FF68F731A40828082880A438280704743
:101AF00002894FF6F8731A40028102890A43028173
:101B0000704702894FF67F731A40028102890A43A7
:101B10000281704781847047818570478186704754
:101B20000187704781877047A0F84010704702888E
:101B30004FF6FF431A40028002880A430280704732
:101B40000146888E70470146088F70470146888F8E
:101B500070470146B1F8400070470146888C7047D5
:101B60000146088D704702460020138A0B400BB1D6
:101B7000012000E000207047CA430282704730B560
:101B80000246002000230024158A05EA01039589F6
:101B900005EA010413B10CB1012000E0002030BDC2
:101BA000CA4302827047000010B50446FB488442D5
:101BB00009D101218803FFF79FF800214FF48040ED
:101BC000FFF79AF832E0F648844209D1012148042F
:101BD000FFF79FF800214FF40030FFF79AF825E057
:101BE000F048844209D101218804FFF792F80021CE
:101BF0004FF48020FFF78DF818E0EB48844209D1BC
:101C00000121C804FFF785F800214FF40020FFF7F9
:101C100080F80BE0E548844208D101210805FFF770
:101C200078F800214FF48010FFF773F810BD2DE90C
:101C3000F04786B005460E460024A24600BFA146E6
:101C40000027B08900B100BF2F462C8A4CF6FF70E8
:101C50000440F08804432C82AC894EF6F310044013
:101C6000B08831890843718908430443AC81AC8A48
:101C70004FF6FF400440B0890443AC8201A8FEF750
:101C8000B4FFC648874202D1DDF810A001E0DDF8BC
:101C90000CA0A88900F4004040B10AEBCA0000EB98
:101CA0000A1031684900B0FBF1F807E00AEBCA00FE
:101CB00000EB0A1031688900B0FBF1F86420B8FB32
:101CC000F0F004012009642101FB1089A88900F4C7
:101CD000004040B1322000EBC900B0FBF1F000F051
:101CE0000700044308E0322000EB09106421B0FB38
:101CF000F1F000F00F0004432C8106B0BDE8F0873E
:101D00004FF41651016000218180C18001810C21B6
:101D1000418100218181704710B502460020108A60
:101D20004FF2FF0318400B884C8823438C882343D1
:101D3000CC8823431843108210BD002101804180CC
:101D40008180C180704721B1828942F40052828132
:101D500004E082894DF6FF731A4082817047F0B526
:101D60000346002400260025002040F66A17B942E9
:101D700000D100BF1846C1F3421401F01F0601272D
:101D800007FA06F5012C01D10C3004E0022C01D138
:101D9000103000E014301AB107682F43076002E0EA
:101DA0000768AF430760F0BD1AB1838A0B43838293
:101DB00002E0838A8B4383827047028A4FF6F07376
:101DC0001A400282028A0A430282704782894FF2D5
:101DD000FF731A40828182890A438281704721B150
:101DE000828942F00202828104E082894FF6FD730B
:101DF0001A4082817047028A4FF6DF731A400282CE
:101E0000028A0A430282704721B1028A42F4804268
:101E1000028204E0028A4BF6FF731A400282704786
:101E2000C1F308028280704701468888C0F3080029
:101E30007047818941F0010181817047028BD2B2E4
:101E40000283028B42EA012202837047028B02F472
:101E50007F420283028B0A430283704721B1828A48
:101E600042F02002828204E0828A4FF6DF731A4039
:101E70008282704721B1828A42F01002828204E09D
:101E8000828A4FF6EF731A408282704721B1828AAC
:101E900042F00802828204E0828A4FF6F7731A4009
:101EA0008282704721B1828942F40042828103E03C
:101EB0008289C2F30E028281704721B1828A42F484
:101EC0000062828204E0828A4FF2FF731A408282AB
:101ED0007047828A4FF6FB731A408282828A0A43D5
:101EE0008282704721B1828A42F00202828204E03B
:101EF000828A4FF6FD731A408282704702460020A4
:101F0000B1F5007F00D100BF13880B400BB1012059
:101F100000E00020704701F40072B2F5007F00D1AC
:101F200000BFCA430280704770B5024600240023F8
:101F30000025002040F66A16B14200D100BFC1F36F
:101F4000421501F01F03012606FA03F3012D02D109
:101F50009689334006E0022D02D1168A334001E013
:101F6000968A33400C12012606FA04F4168834408F
:101F700013B10CB1012000E0002070BD10B50022AB
:101F8000002340F66A14A14200D100BF0A120124C6
:101F90009440A3B2DC43048010BD0000003801402F
:101FA0000044004000480040004C00400050004009
:101FB00010B56FF00400FEF7BCFA2E4800682E49F9
:101FC000B0FBF1F02D4908700846007800EB4001A5
:101FD000C1EBC0104FF6FF7101EAC000284908802C
:101FE00010BD0146254A12784A434FF0E0235A615A
:101FF00000229A611A46126942F001021A6100BF7A
:102000004FF0E022106900F001021AB100F48032B2
:10201000002AF5D04FF0E022126922F001024FF0C1
:10202000E0231A6100229A6170470146144A12881F
:102030004A434FF0E0235A6100229A611A4612691E
:1020400042F001021A6100BF4FF0E022106900F077
:1020500001021AB100F48032002AF5D04FF0E022DC
:10206000126922F001024FF0E0231A6100229A6106
:10207000704700002000002000127A004800002075
:102080004A000020014600BF704700BF424A128844
:1020900002F04002002AF9D0C2B23F4B1B1D1A8049
:1020A000704710B586B00446012144F20400FEF7E3
:1020B00009FE4FF40070ADF8140003208DF81600EF
:1020C00018208DF8170005A93448FEF73FFB4FF4A0
:1020D0008060ADF8140004208DF8170005A92F4882
:1020E000FEF734FB01940020ADF80800ADF80A00BB
:1020F000ADF80C00ADF810000C20ADF80E0001A9F1
:102100002548FFF794FD012240F225512248FFF7B0
:1021100026FE01212048FFF716FE06B010BD10B5BF
:1021200040F225511C48FFF7FFFE10B31A48FFF795
:102130007BFEC4B21A48008800F40040C8B91848B1
:10214000008800F4804060B10A2C03D000201449BC
:10215000088020E01248008840F4004010490880C0
:1021600019E00D2C06D10E48008840F480400C493F
:10217000088010E00A480088C0F30D0009490C549B
:1021800007480088401C0649088008460088C72880
:1021900001DD0020088010BD00380140000801402A
:1021A000500000206400002008B501210820FEF73F
:1021B00089FD10208DF803004FF44050ADF8000069
:1021C00003208DF8020069462548FEF7BFFA08BDD6
:1021D00030B589B005460C460121C802FEF772FDF4
:1021E00001210420FEF76EFD18208DF807004FF442
:1021F0000060ADF8040003208DF8060001A919481D
:10220000FEF7A4FAADF81C50ADF818400020ADF868
:102210001A00ADF81E0006A91348FEF78BFE6020D9
:10222000ADF808000120ADF80A000020ADF80E005E
:10223000ADF8100002A90C48FEF793FF08210A48E8
:10224000FFF723FB01210848FFF7D0FA01210648D8
:10225000FFF7CCF901210448FFF7D4F909B030BDEC
:10226000000C014000080140002C014000B587B07F
:1022700001210420FEF733FD01210820FEF722FD95
:10228000C020ADF8000004208DF8030069463548F1
:10229000FEF75CFA04A8FFF779F90020ADF810000A
:1022A0004FF6FE70ADF814000020ADF816002020A7
:1022B000ADF8120004A92C48FEF73CFE00231A4694
:1022C00003212948FFF745FA01A8FFF772F90A2010
:1022D000ADF80C0001A92448FFF7BFF801212248FE
:1022E000FFF74AFC012211461F48FFF79AF9002127
:1022F0001D48FFF70FFC01211B48FFF777F907B0D6
:1023000000BD10B501211848FFF72DFC012803D1AD
:1023100001211548FFF744FC10BD0146022904D0F5
:1023200003290BD0042919D10FE04FF08042928C81
:1023300010B200224FF080439A8411E00B4A1288B9
:1023400010B20022094B1A800AE0074A2432128890
:1023500010B20022044B24331A8001E0002000BF99
:1023600000BF7047000C01400008004024040040FA
:102370007FB505460C4601210220FEF7B0FCADF802
:102380000850ADF804400020ADF80A00ADF8060092
:1023900001A92E48FEF7CEFD012211462B48FFF77A
:1023A00040F91D208DF8000001208DF803008DF804
:1023B000010003208DF802006846FEF770F8012145
:1023C0002248FFF713F97FBD7FB505460C46012172
:1023D0000846FEF784FCADF80850ADF80440002034
:1023E000ADF80A00ADF8060001A94FF08040FEF7F5
:1023F000A1FD012211469007FFF713F91C208DF86B
:10240000000001208DF803008DF8010003208DF8F5
:1024100002006846FEF743F801218807FFF7E6F857
:102420007FBD10B501218807FFF79DFB01280BD167
:1024300001218007FFF7B4FB0548006820B104487C
:102440000068401E0249086010BD00000004004002
:102450006000002008B501214420FEF733FC18205D
:10246000ADF8000048208DF8030003208DF802002D
:1024700069463148FEF76AF90120ADF800002820CE
:102480008DF8030069462D48FEF760F908BD014646
:102490002B48006828B92B48007810B90120294A38
:1024A000107029480078B0B926480078012807D173
:1024B00026480078401C254A10700120224A1070DE
:1024C00022480078022806D10020204A1070204AB5
:1024D0001080022070471A480068012804D10020AB
:1024E000184A1070184A10701848007801280ED148
:1024F00017480088401C80B2154A1080884206DDCB
:102500000020124A1070124A10800120E2E70020D9
:10251000E0E71048007838B10948006820B9002089
:102520000C4908700120704705480068012801D156
:10253000084908700020F6E7001801400008014033
:10254000148121425200002053000020540000203A
:10255000560000205800002030B503461C788C54EB
:102560005D78541C0D559D78941C0D55DD78D41C58
:102570000D5530BD13B50C460A2C00DC04B91CBD4A
:102580000B2C43D2DFE804F042060C12181E242A5A
:1025900030363C00012244496846FFF7DDFF35E054
:1025A000052241496846FFF7D7FF2FE009223E493F
:1025B0006846FFF7D1FF29E00D223B496846FFF747
:1025C000CBFF23E0112238496846FFF7C5FF1DE025
:1025D000152235496846FFF7BFFF17E01922324937
:1025E0006846FFF7B9FF11E01D222F496846FFF743
:1025F000B3FF0BE021222C496846FFF7ADFF05E051
:10260000252229496846FFF7A7FF00BF00BF00BF8A
:10261000B5E701460A2900DC09B9002070472420EB
:10262000214A10700B293CD2DFE801F03B060B1069
:10263000151A1F24292F350005201B4A507106202A
:10264000ECE70920184A50720A20E7E70D20164AE5
:1026500050730E20E2E71120134A50741220DDE778
:102660001520114A50751620D8E719200E4A5076C9
:102670001A20D3E71D200C4A50771E20CEE72120D8
:10268000094A82F821002220C8E72520064A82F85C
:1026900025002620C2E72920034A82F829002A20A3
:1026A000BCE70020BAE700002C0100200EB5FFF7C0
:1026B000D1FE01210846FEF705FB03210420FEF7A9
:1026C0005BF90820019000208DF808000C208DF89F
:1026D000090001208DF80A0001A8FDF757FF042129
:1026E0000846FEF749F91020019001208DF80A00F4
:1026F00001A8FDF74BFF00210846FEF73DF9012038
:10270000019008208DF8090001208DF80A0001A829
:10271000FDF73CFF06208DF8000002208DF8010037
:1027200003208DF8020001208DF803006846FDF7B4
:10273000B6FE09208DF8000002208DF8010001206E
:102740008DF802008DF803006846FDF7A8FE0A2008
:102750008DF8000002208DF8010000208DF80200A5
:1027600001208DF803006846FDF799FE0EBD10B5F7
:102770000420FFF75AFC01211A48FEF77AF80128D5
:1027800007D11948007808B9012000E00020164957
:1027900008700120FDF771FF10BD10B50420FFF790
:1027A00044FC08211148FEF764F820B9104800687D
:1027B0000A380F4908600820FDF75FFF10BD10B50B
:1027C0000420FFF732FC10210848FEF752F820B928
:1027D000074800680A30064908601020FDF74DFFE1
:1027E00010BD00000008014000000020001801405A
:1027F00004000020032000BF011EA0F10102D0B29E
:10280000FAD1704710B52021FC48FEF74EF84FF47E
:102810008051FB48FEF747F8FFF7ECFF2021F7480F
:10282000FEF741F810BD10B52021F448FEF73BF843
:10283000FFF7E0FF4FF48051F148FEF734F8FFF75F
:10284000D9FF4FF48051EE48FEF72FF8FFF7D2FF83
:1028500010BD70B5044600251DE004F0800020B1D5
:102860002021E648FEF71FF803E02021E348FEF7A9
:102870001CF8FFF7BFFF4FF48051E148FEF713F853
:10288000FFF7B8FF4FF48051DD48FEF70EF8600601
:10289000040E681CC5B2082DDFDB70BD10B5202109
:1028A000D648FEF700F84FF48051D548FDF7FBFFFE
:1028B000FFF7A0FF2021D148FDF7F7FFFFF79AFFB0
:1028C0004FF48051CE48FDF7F0FFFFF793FF10BDA6
:1028D00070B505460C46FFF7E1FF7820FFF7B9FF1A
:1028E000FFF7A1FF1CB14020FFF7B3FF02E000207B
:1028F000FFF7AFFFFFF797FF2846FFF7AAFFFFF7A5
:1029000092FFFFF77FFF70BD10B504461CB9002190
:10291000A620FFF7DDFF012C03D10021A720FFF740
:10292000D7FF10BD10B504463CB90021C820FFF701
:10293000CFFF0021A120FFF7CBFF012C07D1002101
:10294000C020FFF7C5FF0021A020FFF7C1FF10BD89
:1029500010B500218D20FFF7BBFF00211420FFF7E9
:10296000B7FF0021AF20FFF7B3FF10BD10B5002166
:102970008D20FFF7ADFF00211020FFF7A9FF0021F8
:10298000AE20FFF7A5FF10BD70B500242BE004F1C9
:10299000B001C8B20021FFF79BFF00210846FFF7F6
:1029A00097FF00211020FFF793FFFFF777FF7820B4
:1029B000FFF74FFFFFF737FF4020FFF74AFFFFF712
:1029C00032FF002509E08F4901EBC501085DFFF7E3
:1029D00040FFFFF728FF681CC5B2802DF3DBFFF72F
:1029E00011FF601CC4B2082CD1DB70BD70B500248F
:1029F0000CE0002506E00020824901EBC5010855E6
:102A0000681CC5B2802DF6DB601CC4B2082CF0DB5C
:102A1000FFF7BAFF70BD10B54FF48061794800F040
:102A20004BFF10BDF0B5034614467F2B01DC3F2958
:102A300000DDF0BDDCB1CD1701EB5575ED10714E29
:102A400006EBC306755D0A46CE1701EB5676F61007
:102A5000A1EBC6070126BE4035430846CE1701EB61
:102A60005676F610674F07EBC307BD551AE0CD1732
:102A700001EB5575ED10634E06EBC306755D0A4616
:102A8000CE1701EB5676F610A1EBC6070126BE4025
:102A9000B5430846CE1701EB5676F610594F07EBB3
:102AA000C307BD5500BFC4E72DE9FF4F84B0814681
:102AB0008A460020029083460698A0EB09040798F6
:102AC000A0EB0A06CDF80490CDF800A0002C01DDA3
:102AD000012705E00CB9002702E04FF0FF37644200
:102AE000002E02DD4FF0010806E016B94FF0000895
:102AF00002E04FF0FF386642B44201DD254600E0B7
:102B00003546002003901EE0009AD1B2019AD0B25F
:102B1000119AFFF787FF029820440290B34402986D
:102B2000A84205DD0298401B0290019838440190AC
:102B3000AB4504DDABEB050B0098404400900398D7
:102B4000401C80B20390691C03988842DCDB08B00B
:102B5000BDE8F08F2DE9F04306460F46904600256C
:102B6000444643E03A1BD1B27219D0B20122FFF7BA
:102B700059FF3A1BD1B2721BD0B20122FFF752FFAC
:102B80003A19D1B2721BD0B20122FFF74BFF3A19AA
:102B9000D1B27219D0B20122FFF744FF7A19D1B233
:102BA0003219D0B20122FFF73DFF7A1BD1B23219A0
:102BB000D0B20122FFF736FF7A1BD1B2321BD0B25E
:102BC0000122FFF72FFF7A19D1B2321BD0B20122B6
:102BD000FFF728FF6D1C05FB05F004FB040008FB54
:102BE0001809B9F1000F01DD641E6D1E600060431D
:102BF00008FB08F18842B5DABDE8F0830014014013
:102C000000200140560100202DE9FE4F074688466E
:102C100092461C460197CDF80080082C02D14FF057
:102C200006091FE02046E31704EB5373DB1021462F
:102C30004FEAE47C04EB5C7C4FEAEC0CA4EBCC0C9C
:102C4000BCF1000F02D04FF0010C01E04FF0000C7E
:102C50006344224604EBD27C4FEA6C0C03FB0CF37A
:102C600003F0FF09AAF12000C6B200255EE0082C9F
:102C700007D106EB4600FE4901EB400010F805B015
:102C80001DE00C2C07D106EB4600FA4901EB800051
:102C900010F805B013E0102C05D1F74800EB061032
:102CA00010F805B00BE0182C07D106EBC600F3496D
:102CB00001EB800010F805B001E0BDE8FE8F0020B8
:102CC00002901CE00BF0010028B1414638460C9AF6
:102CD000FFF7A8FE09E00C9808B9012000E00020E9
:102CE000024641463846FFF79DFE4FEA6B0B08F15E
:102CF000010000F0FF080298401CC0B20290029848
:102D00000828DFDB781CC7B2082C0BD004EBD47189
:102D10004A100199791A8A4204D1019F009808301B
:102D2000C0B20090DDF80080681CC5B24D459EDB46
:102D300000BFC2E72DE9F84106460F4614461D467E
:102D4000DDF81C8013E0CDF8008022782B46394650
:102D50003046FFF759FF082D02D1B01DC6B205E07D
:102D6000284605EBD07106EB6101CEB2641C2078D9
:102D7000202802DB20787E28E5DDBDE8F88110B54B
:102D80000246012000E050430B1EA1F10104E1B214
:102D9000F9D110BD2DE9FF4F82B0064691461F467E
:102DA000DDE90F4A4FF0000B082C01D14FF0020B68
:102DB000002530E0781B401EC1B20A20FFF7DFFF7C
:102DC000B9FBF0F00A21B0FBF1F201FB1208B8F1F7
:102DD000000F0ED104EBD4710BEB610101FB056117
:102DE000C8B223463022CDE900A40399FFF70CFFB7
:102DF0000FE004EBD4710BEB610101FB0561C8B27C
:102E000008F13001CAB22346CDE900A40399FFF7C7
:102E1000FBFE681CC5B2BD42CCDB06B0BDE8F08F3E
:102E20002DE9FC4F0746884616461C46BB46CDF8A2
:102E300004802046E21704EB5272D2102146E317B9
:102E400004EB5373DB10A4EBC3030BB1012300E0CD
:102E500000231A44624392B20092002555E0102CE0
:102E600005D1874800EB461010F805A01BE0182C90
:102E700007D106EBC600834901EBC00010F805A09E
:102E800011E0202C05D1804800EBC61010F805A0F9
:102E900009E0402C05D17D4800EB462010F805A044
:102EA00001E0BDE8FC8F4FF000091CE00AF00100D2
:102EB00028B1414638460B9AFFF7B4FD09E00B985C
:102EC00008B9012000E00020024641463846FFF7DD
:102ED000A9FD4FEA6A0A08F1010000F0FF0809F1B4
:102EE000010000F0FF09B9F1080FDFDB781CC7B261
:102EF000A7EB0B00A04204D15F4601980830C0B296
:102F00000190DDF80480681C85B200988542A6DB3C
:102F100000BFC6E708B580468946924600260027CE
:102F20004BE04FB91023324618218020CDF800A085
:102F3000FFF776FF701CC6B2464522D14FF0000B5A
:102F40001AE0012410E000250AE0514800EBC4001B
:102F5000415D601E4E4A02EBC0004155681CC5B27F
:102F6000082DF2DB601CC4B2902CECDBFFF70CFDEB
:102F70000BF1010000F0FF0B4FEA09105845E0DCAF
:102F80000026781CC7B2102F00D10027012410E0C2
:102F900000250AE03E4800EBC400415D601E3C4A4B
:102FA00002EBC0004155681CC5B2082DF2DB601C65
:102FB000C4B2902CECDBFFF7E7FCB2E72DE9FF4F42
:102FC00005460E4617461C46DDF838904FF0000ABD
:102FD0000095B3462046E21704EB5272D210214608
:102FE000E31704EB5373DB10A4EBC3030BB1012312
:102FF00000E000231A44D4B24FF0000858E000204B
:1030000003904EE00D9810F80A0002900AF10100BA
:103010001FFA80FA002001901DE0029800F00100E4
:1030200028B14A4631462846FFF7FCFC0AE0B9F1D0
:10303000000F01D1012000E0002002463146284661
:10304000FFF7F0FC029840100290701CC6B2019885
:10305000401CC0B2019001980828DEDB681CC5B294
:103060000098281AB84217D1009D0BF1080011E012
:10307000663D00088E3F000802440008F24900083F
:103080004E5700080E58000856580008D658000839
:103090005601002000F0FF0B5E460398401CC0B2B2
:1030A00003900398B842ADDB08F1010000F0FF087F
:1030B000A045A4DBBDE8FF8F08B501214FF4907057
:1030C000FDF700FE4FF48050ADF8000014208DF89D
:1030D000030003208DF8020069464648FDF736FBE1
:1030E0004FF480514348FDF7DEFB2020ADF800008F
:1030F00014208DF8030003208DF8020069463E4835
:10310000FDF724FB20213C48FDF7CDFB0021AE203C
:10311000FFF7DEFB00210846FFF7DAFB0021102055
:10312000FFF7D6FB00214020FFF7D2FB00218120D2
:10313000FFF7CEFB0021CF20FFF7CAFB0021A12023
:10314000FFF7C6FB0021C820FFF7C2FB0021A62025
:10315000FFF7BEFB0021A820FFF7BAFB00213F20AC
:10316000FFF7B6FB0021D320FFF7B2FB0021084692
:10317000FFF7AEFB0021D520FFF7AAFB002180203E
:10318000FFF7A6FB0021D920FFF7A2FB0021F120C9
:10319000FFF79EFB0021DA20FFF79AFB00211220A7
:1031A000FFF796FB0021DB20FFF792FB0021402078
:1031B000FFF78EFB00212020FFF78AFB0021022071
:1031C000FFF786FB00218D20FFF782FB00211420F2
:1031D000FFF77EFB0021A420FFF77AFB0021A62049
:1031E000FFF776FBFFF702FC0021AF20FFF770FB33
:1031F00008BD0000002001400014014010B5FE4849
:10320000006800F057FC04460121FFF7B3F9FB48C2
:10321000006800F04FFC04460221FFF7ABF90321E0
:103220000020FFF7A7F90320FFF7F3F9F44908702E
:103230000020F449087012E000BFF348008800F055
:1032400040000028F9D0F148EE490978405CEE4989
:10325000091D0880EB480078401CEA490870E948DD
:103260000078E74909788842E6DB10BD10B50446CE
:10327000E748006858B9FFF787FBFFF7CCFB4FF42E
:103280007A7090FBF4F0E2490860012010BD002044
:10329000FCE7F0B5ADF2044D00273C254FF480610A
:1032A00001A800F02BFB022000F0E8FA002437E030
:1032B00001A800EBC400C07988BBFCF789FF7F211F
:1032C00090FBF1F201FB120000B201A921F83400D9
:1032D000FCF77EFF0646C01706EB90608011A6EB58
:1032E000801000B201A901EBC4014880002001A9AF
:1032F00001EBC4018871FCF76BFF0646C01706EBB3
:103300005070C010A6EBC000401C00B201A901EB38
:10331000C4018880012001A901EBC401C871641CAB
:10332000802CC5DB9AE02846FFF7A0FF012806D1D4
:103330007F1CB7EB450F02DB0DF2044DF0BD0024FE
:1033400089E001A800EBC400C07948BB002001A9B6
:1033500021F83400FCF73CFF0646C01706EB9060EE
:103360008011A6EB801000B201A901EBC4014880D6
:10337000FCF72EFF062190FBF1F201FB1200401C2E
:1033800000B201A901EBC4018880002001A901EB72
:10339000C4018871012001A901EBC401C87159E081
:1033A00001A800EBC4008079401C01A901EBC40115
:1033B000887101A830F934007C2804DB002001A9C1
:1033C00001EBC401C871002001AE06EBC4060090F9
:1033D000B37801AE16F8342006EBC406B17801AE1E
:1033E00016F83400FFF760FB01A800EBC4008079F9
:1033F00001A901EBC401B1F9041088420CD10020ED
:1034000001A901EBC401887101A830F83400401C07
:1034100000B201A921F8340001A800EBC400B0F902
:103420000400062191FBF0F001A911F834100844C2
:10343000401EC6B2012001AA02EBC402009093789C
:1034400001AA02EBC402917801AA12F834003246B4
:10345000FFF72AFB641C802CFFF673AF63E708B507
:10346000012010236BA2002100902020FFF762FCB6
:10347000012010230022202100900420FFF7D0FC1F
:10348000012010230246202100901920FFF7C8FCDC
:10349000012010230222202100902E20FFF7C0FCE3
:1034A000012010230322202100904320FFF7B8FCC5
:1034B000012010230422202100905820FFF7B0FCA7
:1034C000012010230522202100906D20FFF7A8FC89
:1034D000FFF75AFA4FF47A70FEF7A7FD4FF47A70AF
:1034E000FEF7A3FDFFF782FA41F61F410920FEF720
:1034F0006BFFFFF7CEFE002201218807FEF791F84F
:1035000000214FF08040FEF771F808BD7CB5012026
:10351000102340A2002100902020FFF70BFC012087
:1035200010233FA2194600900020FFF703FC3E48FD
:10353000007840B1012010233CA219460090482099
:10354000FFF7F8FB07E0012010233AA2194600908C
:103550004820FFF7EFFB0120102338A22021009024
:103560000020FFF7E7FB012010210223CDE9001026
:103570002248202102680846FFF70CFC0120102396
:1035800030A2202100903820FFF7D4FB0120102327
:103590002DA2202100906820FFF7CCFB174800687F
:1035A00041F2707148434FF4C36190FBF1F4012084
:1035B000102103232246CDE9001020214820FFF7E7
:1035C000E9FB0120102321A2302100900020FFF709
:1035D000B1FB012010210223CDE900100648302163
:1035E00002682020FFF7D6FB0120102315A230210E
:1035F000009038202EE00000080000200400002089
:103600005D0000205C000020003801402C010020FB
:103610006000002043617073746F6E6500000000ED
:103620006D6F746F723A00000000002053746F7069
:103630002000000053746172740000007365743AD6
:10364000000000006E3A000072706D006765743A09
:1036500000000000FFF76EFB01201023AFF21802FC
:10366000302100906820FFF765FB2548006841F293
:10367000707148434FF4C36190FBF1F501201021B4
:1036800003232A46CDE9001030214820FFF782FBB2
:10369000FFF77AF97CBD38B5FFF7BDF9002410E0DB
:1036A0000120009004EB84004006020E3F2300211D
:1036B0000846FFF7F9F9FFF767F93220FEF7B5FC86
:1036C000641C142CECDB002412E00120009004EBBD
:1036D00084008021A1EB4000C2B23F230021802062
:1036E000FFF7E2F9FFF750F93220FEF79EFC641C69
:1036F000142CEADB4FF47A70FEF797FC38BD00001B
:10370000080000200146002901DA484200E008468E
:10371000704700B502464A48007801280ED10020C3
:10372000484908604849C1F8B001484908804849FB
:10373000086048490860484908600BE00120414999
:10374000086000204049C1F8B0011046FFF7DAFFD9
:103750003E49088000BD4FF4E1503F4909684242AC
:10376000914202DA41423C4A11603B490968814278
:1037700001DD3949086070472DE9F0473448006899
:1037800000F098F9814635480168484600F0AAF9EA
:1037900006462F4909682F4A1268881A00F08AF9EC
:1037A00081462F480168484600F09CF9074631469B
:1037B00000F002F905462848006800F07BF98046D1
:1037C000294600F0F9F8044600F058F9224908604B
:1037D0001F4800681F4908601F480068BDE8F0875F
:1037E00010B501211F48FEF7BEF9012826D101219D
:1037F0001C48FEF7D5F90420FEF78FFD1A49086032
:103800001A4800680968401A11490860FFF7B4FFB8
:10381000FFF7A1FF10480068FFF77BFF144800780E
:1038200001280BD113480078401CC0B21149087020
:10383000052803D1002008700D490870002010BD34
:1038400000000020B481214200802142402C014030
:1038500014000020180000201C0000201000002090
:103860000C0000200004004008000020040000209C
:103870005E0000205F000020704700000B4910B57B
:10388000A1F17C020A4CC2E93712372106E000EBB5
:10389000104342F82130074B00FB03400B1EA1F1FF
:1038A0000101F4DC10BD0120E8E70000D405002090
:1038B000E119D666CD0D01004FF000020429C0F0D9
:1038C000128010F0030C00F01B80CCF1040CBCF152
:1038D000020F18BF00F8012BA8BF20F8022BA1EBA4
:1038E0000C0100F00DB85FEAC17C24BF00F8012B89
:1038F00000F8012B48BF00F8012B70474FF0000281
:1039000000B5134694469646203922BFA0E80C50D5
:10391000A0E80C50B1F12001BFF4F7AF090728BFB0
:10392000A0E80C5048BF0CC05DF804EB890028BF2C
:1039300040F8042B08BF704748BF20F8022B11F055
:10394000804F18BF00F8012B7047704770477047D1
:103950007047754600F02CF8AE46050069465346A0
:1039600020F00700854618B020B5FCF781FDBDE8C2
:1039700020404FF000064FF000074FF000084FF0D6
:10398000000B21F00701AC46ACE8C009ACE8C00967
:10399000ACE8C009ACE8C0098D46704710B50446D4
:1039A000AFF300802046BDE81040FCF70ABC0000E1
:1039B000004870473C06002090EA010F48BF81F0A4
:1039C000004100F16281421A3CBF801A89184FEA17
:1039D000D0524FF07F4C1CEA410FA2EBD15318BFDD
:1039E0009CEA026F00F03B804FF0004C4CEA002054
:1039F0004CEA012121FA03FC10EB0C0C1ED202F15F
:103A0000FF325FEA1C2040EBC25038BF70471CF009
:103A10007F0F4FEA400C18BFBCF17F4F38BF704793
:103A2000C3F12003994008BF20F00100BCF17F4F93
:103A300038BF7047A0F1C04000F01BB94FEA3C000E
:103A4000000A40EBC25028BF1CF0FF0F4FEA400CA9
:103A5000E6D018BFBCF17F4F38BF7047EAE79CEA59
:103A6000026F05D010EA5C0F08BF00F000407047FD
:103A700010B500F0B8F800BF64FBBE3E41000B0E6D
:103A8000D3F19E0208D950F400034FEA032323FA2E
:103A900002F048BF4042704710B500F0A4F800BFE4
:103AA00049922480002070476FF0004282EA200093
:103AB0007047000010F0004148BF4042B0FA80F368
:103AC00010FA03F2C3F19D030BD051EAC35101EB8D
:103AD0001220530638BF704700F1010008BF20F0E4
:103AE000010070474FF47F0C1CEAD0121EBF1CEA85
:103AF000D11392EA0C0F93EA0C0F00F0478090EA82
:103B0000010F48BF42F480724FF0004C4CEA002095
:103B10004CEA012102EB0302A0FB0113A2F5000213
:103B2000002918BF43F001035B0028BF4FEA3303AD
:103B300042EB22425FEA132C4CEBC2502EBFBCEB8F
:103B4000436FB2F57C0F70474FEA036CBCF1004F36
:103B500008BF20F00100B2F57C0F38BF70470BD5CD
:103B600082F0FF0212F5803FC8BF704700F1C040ED
:103B7000D8BF00F00040704700F5000C5FEA4C0C25
:103B800048BF7047B0F1C04000F073B890EA010F31
:103B90000CEAD11348BF42F48072624538BF6345D6
:103BA00004D280EA010000F00040704710B500F038
:103BB0001AF800BF8900013E00F007B800F009B80C
:103BC0005FEA410C5FEA1C6C08D080EA010000F05B
:103BD00050B85FEA400C5FEA1C6CF6D14FF0004031
:103BE000A0F5800070470EF1020E2EF0030E5EF875
:103BF000044B244204D44FEA4102B2F17F4F11D862
:103C00004FEA4003B3F17F4F0CD80ED14FEAD07C7E
:103C1000B2F17F4F0CEB4C0C0CF1020C08BF4CEBDB
:103C2000D17C04E04FF0080C01E04FEAD17C0CEBB2
:103C30004C0324FA03F404F00704B4F1040C06D294
:103C40000EEB840CBDE810404CF0010C6047DFE83F
:103C50000CF0070802024FF00040A0F5800010BDF4
:103C60000846420018BFD2F1807288BF00F00040C1
:103C700010BDFF2141EAD050C005704790EA010F06
:103C800048BF81F000413FF59EAE421A04D882F051
:103C90000042A0EB020011444FEAD0524FF07F4C9B
:103CA0001CEA410FA2EBD15318BF9CEA026F4AD025
:103CB0004FF0004C4CEA00204CEA012121FA03FCB1
:103CC000B0EB0C0C0FD412F0FE0F36D05FEA4C00B4
:103CD0001DD5001240EBC25038BF70471CF03F0F9B
:103CE00018BF70470BE0A2F101025FEA1C2040EB15
:103CF000C25038BF70471CF07F0F18BF7047C3F128
:103D00002003994014BF401E20F001007047800836
:103D10004FEA122308BF7047B0FA80FCA2EB0C02F6
:103D2000CCF1280C60FA0CF093EA122F04BF00EBE0
:103D3000C25070474FEAC3707047130A5FEADC1045
:103D400008BF7047F6E79CEA026F04D010EA5C0FE8
:103D500008BF0020704710B5FFF745FF40DFF63E73
:103D600081F0004070470000000000000000002FBC
:103D7000000000000700070000147F147F140024D7
:103D80002A7F2A1200626408132300364955225004
:103D900000000503000000001C2241000000412239
:103DA0001C000014083E08140008083E0808000023
:103DB00000A060000008080808080000606000001B
:103DC000002010080402003E5149453E0000427F99
:103DD0004000004261514946002141454B310018E5
:103DE00014127F10002745454539003C4A494930A7
:103DF0000001710905030036494949360006494961
:103E0000291E00003636000000005636000000086B
:103E10001422410000141414141400004122140848
:103E200000020151090600324959513E007C12112D
:103E3000127C007F49494936003E41414122007FC2
:103E40004141221C007F49494941007F090909017C
:103E5000003E4149497A007F0808087F0000417F01
:103E60004100002040413F01007F08142241007FB3
:103E700040404040007F020C027F007F0408107F1A
:103E8000003E4141413E007F09090906003E415183
:103E9000215E007F09192946004649494931000140
:103EA000017F0101003F4040403F001F2040201F94
:103EB000003F4038403F0063140814630007087057
:103EC000080700615149454300007F41410000550A
:103ED0002A552A55000041417F00000402010204D6
:103EE00000404040404000000102040000205454C3
:103EF0005478007F48444438003844444420003813
:103F00004444487F00385454541800087E09010284
:103F10000018A4A4A47C007F080404780000447D59
:103F20004000004080847D00007F10284400000095
:103F3000417F4000007C04180478007C0804047869
:103F400000384444443800FC242424180018242455
:103F500018FC007C08040408004854545420000451
:103F60003F444020003C4040207C001C2040201C5E
:103F7000003C4030403C004428102844001CA0A0D5
:103F8000A07C004464544C44141414141414000011
:103F9000000000000000000000000000FC00000025
:103FA000000002000000000C020C020000000000F3
:103FB000000090D0BCD0BC90000300030000182487
:103FC000FE448C000302070201001824D8B04C8084
:103FD000000300010201C038E438E00001020201E0
:103FE00002020806000000000000000000000000BF
:103FF00000F80402000000010204000204F80000BE
:104000000004020100009060F860900000000100D0
:1040100000002020FC202000000001000000000023
:1040200000000000080600000000202020202000E2
:10403000000000000000000000000000000200007E
:1040400000000080601C0200040300000000F8046F
:104050000404F8000102020201000008FC00000054
:104060000002030200001884442418000302020224
:10407000020008042424D80001020202010040B01A
:1040800088FC80000000000302003C242424C400BB
:10409000010202020100F824242CC00001020202E5
:1040A00001000C04E41C0400000003000000D824FC
:1040B0002424D80001020202010038444444F800DC
:1040C00000030202010000001000000000000200D6
:1040D000000000002000000000000600000000209A
:1040E000508804020000000001029090909090001F
:1040F00000000000000000020488502000020100BF
:1041000000001804C4241800000002000000F80495
:10411000E494F80001020202020000E09CF080003A
:1041200002030000030204FC2424D800020302025C
:104130000100F80404040C0001020202010004FC66
:104140000404F80002030202010004FC24740C00C1
:1041500002030202030004FC24740C0002030200A8
:104160000000F0080444CC4000010202010004FCFD
:104170002020FC040203000003020404FC040400E9
:10418000020203020200000404FC04040604040307
:10419000000004FC24D00C0402030200030204FC0F
:1041A00004000000020302020203FC3CC03CFC00CD
:1041B00003000300030004FC30C4FC0402030200FB
:1041C0000300F8040404F80001020202010004FCE8
:1041D00024241800020302000000F8848404F8007C
:1041E00001020207050004FC246498000203020097
:1041F0000302182424448C000302020201000C0470
:10420000FC040C0000020302000004FC0000FC049B
:10421000000102020100047C80E01C040000030095
:1042200000001CE03CE01C00000300030000049CB4
:10423000609C0400020300030200041CE01C040054
:104240000002030200000C84641C0400020302024A
:1042500003000000FE020200000007040400000E3C
:1042600030C00000000000010200000202FE000059
:104270000004040700000004020400000000000025
:1042800000000000000000000808080808080000FE
:10429000020000000000000000000040A0A0C000DC
:1042A00000010202030204FC2020C00000030202FD
:1042B000010000C02020600000010202020000C0D6
:1042C0002024FC0000010202030200C0A0A0C000E4
:1042D0000001020202000020F8242404000203026C
:1042E00002000040A0A0602000070A0A0A0404FCA3
:1042F0002020C0000203020003020020E4000000AE
:10430000000203020000000020E400000808080783
:10431000000004FC80E020200203020003020404E9
:10432000FC000000020203020200E020E020C000C6
:1043300003000300030020E02020C000020302006D
:10434000030200C02020C00000010202010020E0A2
:104350002020C000080F0A02010000C02020E00059
:104360000001020A0F0820E04020200002030200A2
:1043700000000060A0A02000000202020300002054
:10438000F820000000000102020020E00020E00010
:1043900000010202030220E02080602000000301EF
:1043A00000006080E08060000003000300002060E7
:1043B0008060200002030003020020E020806020D3
:1043C0000808070100000020A0602000000203028E
:1043D0000200000020DE02000000000704000000D0
:1043E00000FF00000000000F00000002DE200000BF
:1043F00000040700000002010204040200000000A3
:1044000000000000000000000000000000000000AC
:104410000000000000F80000000000000033300041
:10442000000000100C06100C060000000000000048
:10443000000040C07840C0784000043F04043F04BE
:104440000400007088FC08300000001820FF211EC6
:104450000000F008F000E018000000211C031E21FD
:104460001E0000F00888700000001E212324192778
:10447000211010160E0000000000000000000000D7
:104480000000000000E018040200000000071820EF
:10449000400000020418E00000000040201807005F
:1044A0000000404080F0804040000202010F010205
:1044B0000200000000F0000000000101011F0101E6
:1044C0000100000000000000000080B0700000004B
:1044D00000000000000000000000000101010101D7
:1044E000010100000000000000000030300000006A
:1044F0000000000000008060180400601806010041
:10450000000000E010080810E000000F102020104C
:104510000F00001010F8000000000020203F2020B5
:10452000000000700808088870000030282422214C
:104530003000003008888848300000182020201102
:104540000E000000C02010F8000000070424243FE3
:10455000240000F80888880808000019212020118C
:104560000E0000E0108888180000000F11202011B4
:104570000E0000380808C83808000000003F00009E
:1045800000000070880808887000001C2221212289
:104590001C0000E010080810E00000003122221189
:1045A0000F00000000C0C00000000000003030001C
:1045B000000000000080000000000000806000009B
:1045C00000000000804020100800000102040810D4
:1045D00020004040404040404000040404040404E3
:1045E0000400000810204080000000201008040291
:1045F0000100007048080808F00000000030360193
:104600000000C030C828E810E00007182724231451
:104610000B000000C038E0000000203C230202270D
:10462000382008F8888888700000203F202020115A
:104630000E00C03008080808380007182020201095
:10464000080008F808080810E000203F202020108B
:104650000F0008F88888E8081000203F2020232059
:10466000180008F88888E8081000203F20000300A0
:104670000000C03008080838000007182020221E5B
:10468000020008F808000008F808203F2101012175
:104690003F20000808F8080800000020203F2020E4
:1046A000000000000808F8080800C08080807F0033
:1046B000000008F888C028180800203F200126388C
:1046C000200008F8080000000000203F20202020E3
:1046D000300008F8F800F8F80800203F003F003FDD
:1046E000200008F830C00008F808203F2000071814
:1046F0003F00E01008080810E0000F1020202010F4
:104700000F0008F808080808F000203F2101010107
:104710000000E01008080810E0000F1824243850AA
:104720004F0008F8888888887000203F2000030C1C
:104730003020007088080808380000382021212225
:104740001C00180808F8080818000000203F200086
:10475000000008F808000008F808001F20202020AA
:104760001F000878880000C83808000007380E01CC
:104770000000F80800F80008F800033C0700073CB8
:104780000300081868808068180820302C03032C68
:1047900030200838C800C83808000000203F20003A
:1047A000000010080808C8380800203826212020FA
:1047B0001800000000FE020202000000007F4040DE
:1047C0004000000C30C0000000000000000106386E
:1047D000C00000020202FE000000004040407F00D6
:1047E00000000000040202020400000000000000BB
:1047F00000000000000000000000808080808080B9
:1048000080800002020400000000000000000000A0
:1048100000000000808080800000001924222222F5
:104820003F2008F8008080000000003F1120201188
:104830000E000000008080800000000E112020206B
:104840001100000000808088F800000E1120201068
:104850003F200000808080800000001F2222222252
:104860001300008080F0888888180020203F2020D6
:1048700000000000808080808000006B94949493FE
:10488000600008F8008080800000203F21000020A8
:104890003F2000809898000000000020203F20204A
:1048A0000000000000809898000000C08080807F99
:1048B000000008F8000080808000203F24022D3096
:1048C0002000000808F8000000000020203F202001
:1048D00000008080808080808000203F20003F207A
:1048E000003F8080008080800000203F2100002069
:1048F0003F200000808080800000001F20202020BA
:104900001F00808000808000000080FFA120201117
:104910000E000000008080808000000E112020A08A
:10492000FF80808080008080800020203F21200048
:104930000100000080808080800000332424242433
:104940001900008080E0808000000000001F20200F
:1049500000008080000000808000001F20202010C8
:104960003F20808080000080808000010E3008069B
:10497000010080800080008080800F300C030C30AC
:104980000F0000808000808080000020312E0E31DA
:104990002000808080000080808080818E701806DA
:1049A000010000808080808080000021302C222146
:1049B000300000000000807C020200000000003F88
:1049C000404000000000FF00000000000000FF0069
:1049D00000000002027C800000000040403F000018
:1049E00000000006010102020404000000000000B3
:1049F00000000000000000000000000000000000B7
:104A000000000000000000000000000000000000A6
:104A10000000000000000000000000F0F0F00000C6
:104A200000000000000000017F0100000000000005
:104A30000000001C1C1C0000000000008060301CF6
:104A40008C60301C0C000000000000000000000022
:104A50000000000000000000000000000000000056
:104A600000E00000000000E000000086E69F86866F
:104A70008686E69F860000011F01010101011F01DA
:104A80000100000080C06020F820E0C000000000AD
:104A900003070C18FF70E18100000000070F1010E1
:104AA0007F100F0700008060206080000000E02081
:104AB00000000F3020309F70DC371030C000000045
:104AC000100E03000718101807000000C02020E097
:104AD000C0000000000080E01F38E88703C43C04E9
:104AE0000000070F1810100B070D101008000080B1
:104AF0008C4C3800000000000000000000000000A6
:104B000000000000000000000000000000000000A5
:104B1000000000000000000080E0300804000000F9
:104B2000000000FEFF010000000000000000000087
:104B3000030F1820400000040830E080000000004F
:104B400000000000000001FFFE0000000000004027
:104B500020180F030000000000000000000000000B
:104B6000C00000000000004266663C18FF183C666A
:104B7000664200000000000003000000000000008A
:104B80000000000080000000000000101010101055
:104B9000FF101010101000000000000003000000C3
:104BA0000000000000000000000000000000000005
:104BB0000000000000000000000000808C4C380065
:104BC00000000000000000000000000000000000E5
:104BD0000000001010101010101010101000000035
:104BE00000000000000000000000000000000000C5
:104BF00000000000000000000000000000000000B5
:104C0000000000001C1C1C00000000000000000050
:104C1000000000000000E0380C0000000000807080
:104C20001C03000000000060380E010000000000BE
:104C30000000000080C060202060C080000000FEF6
:104C4000FF010000000001FFFE000001070E181028
:104C500010180E0701000000808080C0E0000000F6
:104C600000000000000000FFFF0000000000000046
:104C70001010101F1F101010000000804020202076
:104C80002060C080000000030300804020381F0720
:104C90000000001C1A1918181818181F00000080AE
:104CA000C020202060C0800000000003030010101E
:104CB000182FE780000000070F10101010180F07C2
:104CC0000000000000000000C0E0F000000000C094
:104CD000B088868180FFFF80800000000000001007
:104CE000101F1F1010000000E060606060606060D6
:104CF000000000003F1008080818F0E0000000075E
:104D00000B101010101C0F030000000080C040208A
:104D10002020E0C0000000FCFF211008080818F067
:104D2000E0000001070C18101010080F030000002D
:104D3000C0E06060606060E06000000003000000B0
:104D4000E0180700000000000000001F1F00000026
:104D500000000080C0602020202060C0800000870C
:104D6000EF2C1818303068CF830000070F081010A0
:104D70001010180F07000000C0C020202020C080A5
:104D80000000001F3F604040402010FFFE00000078
:104D90000C1C101010080F030000000000000000A1
:104DA00000000000000000000000000E0E0E0000D9
:104DB000000000000000001C1C1C0000000000009F
:104DC0000000000000000000000000000000000CD7
:104DD0000C00000000000000000000583800000037
:104DE00000000000000000000080402010000000D3
:104DF00010284482010000000000000000000000B4
:104E00000102040810000000000000000000000083
:104E1000000000848484848484848484840000006A
:104E20000000000000000000000000001020408092
:104E30000000000000000000000000000182442883
:104E4000100000001008040201000000000000C073
:104E500020201010101030E0C0000003030000F00C
:104E600010080C070300000000001C1C1C000000C0
:104E70000000000000C0406020202040C00000FC76
:104E8000FF01F00E03C1FE03807F0001070E081131
:104E90001110110904020000000080E0E000000091
:104EA00000000000807C4340477FF880000010181D
:104EB0001F1000000000131F1C1020E0E020202025
:104EC0002060C080000000FFFF10101010182FE7B6
:104ED0008000101F1F1010101010180F0700000086
:104EE00080C0402020202060E00000FCFF01000086
:104EF0000000000001000001070E18101010080447
:104F0000030020E0E02020202040C080000000FFBF
:104F1000FF000000000001FFFE00101F1F10101016
:104F200018080E07010020E0E0202020202020604B
:104F3000800000FFFF101010107C00000000101F08
:104F40001F10101010101018060020E0E020202084
:104F500020206060800000FFFF101010107C000017
:104F60000100101F1F1000000000000000000000E2
:104F700080C06020202040E0000000FCFF01000015
:104F80004040C0C140400001070E181010100F0F24
:104F9000000020E0E0200000000020E0E02000FF12
:104FA000FF101010101010FFFF00101F1F10000046
:104FB0000000101F1F100000202020E0E020202013
:104FC00000000000000000FFFF00000000000000E3
:104FD0001010101F1F1010100000000000002020F3
:104FE00020E0E020202000000000000000FFFF0083
:104FF00000000060E0808080C07F3F00000020E073
:10500000E020000020A06020200000FFFF30187C7E
:10501000E3C000000000101F1F10000001131F1C40
:10502000181020E0E020000000000000000000FF59
:10503000FF000000000000000000101F1F101010F3
:1050400010101018060020E0E0E000000000E0E092
:10505000E02000FF013FFEC0E01E01FFFF00101F27
:105060001000031F0300101F1F1020E0E0C000000D
:1050700000000020E02000FF0003071C78E0800013
:10508000FF00101F100000000000030F1F000000B1
:1050900080C060202060C080000000FEFF01000092
:1050A000000000FFFE000001070E181010180C078A
:1050B000010020E0E0202020202060C0800000FFD0
:1050C000FF2020202020301F0F00101F1F10000085
:1050D000000000000000000080C060202060C08050
:1050E000000000FEFF010000000000FFFE000001C4
:1050F000070E1111133C7C67210020E0E0202020E6
:10510000202060C0800000FFFF101030F0D0080F9A
:105110000700101F1F10000000030F1C101000805C
:10512000C060202020204040E00000070F0C18182D
:10513000303060E08100001F0C0810101010180FB4
:1051400007008060202020E0E02020206080010017
:10515000000000FFFF000000000100000000101F21
:105160001F100000000020E0E020000000000020F0
:10517000E02000FFFF00000000000000FF0000072B
:105180000F1810101010100807002060E0E0200039
:10519000000020E060200000077FF88000807C0392
:1051A000000000000000071F1C070000000020E0B6
:1051B000E02000E0E0200020E0200007FFF8E01FF2
:1051C000FFFCE01F00000000031F0300011F03009D
:1051D0000000002060E0A0000020E060200000004F
:1051E00000038F7CF8C6010000000010181E130099
:1051F00001171F1810002060E0E02000000020E0F0
:105200006020000001073EF8E018070000000000E1
:105210000010101F1F1010000000008060202020D0
:1052200020A0E0E0200000000000C0F03E0F0300DE
:10523000000000101C1F17101010101806000000AE
:10524000000000FC0404040404000000000000FF4F
:1052500000000000000000000000007F40404040CF
:105260004000000010E0000000000000000000000E
:105270000000031C6080000000000000000000002F
:1052800000030C70800000000404040404FC00000F
:10529000000000000000000000FF0000000000000F
:1052A00040404040407F0000000000000010080C1B
:1052B000040C0810000000000000000000000000C6
:1052C00000000000000000000000000000000000DE
:1052D00000000000000000000000000000000000CE
:1052E00000000000000080808080808080808080BE
:1052F0008080000000040408080000000000000096
:10530000000000000000000000000000000000009D
:10531000000000000000000000000000000000008D
:105320000000000098D844642424FCF80000000F1A
:105330001F18101010081F1F10180020E0F00000A8
:105340000000000000000000FFFF180804040CF833
:10535000F00000001F0F18101010180F03000000BD
:105360000000000000000000000000E0F818040445
:10537000043C3800000000030F0C10101010080649
:1053800000000000000000000020E0F0000000E04D
:10539000F81C04040408FFFF000000030F1810109D
:1053A00010081F0F080000000000000000000000AF
:1053B00000000000E0F8484444444C7870000000CD
:1053C000030F0C181010100804000000000080C02B
:1053D000602020E0C00000040404FFFF0404040473
:1053E0000000000010101F1F10101000000000002F
:1053F00000000000000000000000000070F88C04B5
:10540000048CF874040C007076CF8D8D8D89C8786B
:1054100070000020E0F0000000000000000000002C
:10542000FFFF08040404FCF8000000101F1F100018
:1054300000101F1F1000000000000060600000004E
:1054400000000000040404FCFC0000000000000058
:105450001010101F1F1010100000000000000000AE
:1054600000606000000000000000040404FCFC0078
:1054700000000000C0C08080C07F3F00000000200E
:10548000E0F000000000000000000000FFFF80C00E
:10549000F41C0404000000101F1F1100031F1C1047
:1054A00010000000202020E0F000000000000000BC
:1054B000000000FFFF000000000000001010101F9F
:1054C0001F1010100000000000000000000000008D
:1054D000000004FCFC0804FCFC0804FCFC00101F99
:1054E0001F10001F1F10001F1F10000000000000F1
:1054F0000000000000000004FCFC08080404FCF8A4
:10550000000000101F1F100000101F1F10000000DF
:105510000000000000000000000000E0F0180C0493
:10552000040C18F0E00000030F0C101010100C0F0A
:105530000300000000000000000000000000000464
:10554000FCFC080404040CF8F0000080FFFF8890C5
:1055500010101C0F030000000000000000000000FD
:10556000000000E0F81C04040408F8FC000000033C
:105570000F1810109088FFFF80000000000000004E
:10558000000000000000040404FCFC100804040CEB
:105590000C001010101F1F10101000000000000061
:1055A0000000000000000000000000003078CCC4C3
:1055B0008484840C1C0000001E1810101011190F98
:1055C00006000000000000C0000000000000000411
:1055D0000404FFFF040404000000000000000F1F8B
:1055E0001010100C0000000000000000000000007F
:1055F00000000004FCFE00000004FCFE00000000AF
:105600000F1F181010081F0F0800000000000000F6
:1056100000000000000000040C3CFCC40000C43C7E
:105620000C0400000000010F1E0E0100000000002D
:1056300000000000000000000000043CFCC400E486
:105640007CFC84807C040000071F070000071F0704
:105650000000000000000000000000000000000446
:10566000041C7CE4C0341C0404000010101C16014F
:10567000131F1C18100000000000000000000000B4
:10568000000000040C3CFCC400C43C040400000006
:10569000C080C1370E0100000000000000000000C3
:1056A00000000000000000001C0404C4F47C1C0482
:1056B00000000000101C1F17111010180E00000031
:1056C0000000000000F80C040000000000000010C2
:1056D00028EF00000000000000000000003F6040D4
:1056E0000000000000000000FF00000000000000BB
:1056F00000000000FF0000000000000000000000AB
:10570000FF00000000000000040CF8000000000092
:10571000000000000000EF28100000000000000062
:1057200040603F0000000000000000180602020474
:1057300008102020300800000000000000000000D9
:105740000000000000000000000000000000C8B8D9
:105750008FE88888404848E85F4848484000081873
:1057600008FF040400020B1222D20A060000404087
:1057700042CC0004F49494FF9494F404000000409C
:10578000201F20484442415F41424448400000F805
:105790000122202222A2FA22222202FE000000FF81
:1057A0000008040211201F000040807F00000484D4
:1057B00084FC848400040484E41C840404002060C9
:1057C000201F101004020100FF00000106004042EB
:1057D000CC0000FE829292FE929282FE00000000B7
:1057E0003F10887F001E1212125E807F0000404032
:1057F00042CC0004F49494FF9494F404000000401C
:10580000201F20484442415F41424448400000007C
:1058100000C080808080808080FC84808080808048
:1058200080C0C0000000000000FF7F4040404040BA
:1058300040FF40404040404040FF7F0000000000EB
:105840000000000000000000007F70000000000069
:105850000000000000000000000000000000000048
:105860000000000000FCF800000000000000000044
:1058700000000000000000000000FFFE0202020223
:105880000202020202FFFF020202020202020202FE
:10589000FF0300000000000000001F1F04040404B8
:1058A0000404040404FFFF040404040404040404C2
:1058B0001F000000000000000000000000000000C9
:1058C00000000000007F3F0000000000000000001A
:1058D00000000000000000000000000000000000C8
:1058E00000000000000000000000000000000000B8
:1058F000000000F8F8F0F070200000000000000048
:105900000000000000000000000000000000000097
:105910000000000000000000000000000000800007
:105920000000000000000000000000000000000077
:10593000000000FFFFFFFF0000000000000000006B
:105940000000000000000000000080800000000057
:10595000000000000000000000000000000000FF48
:10596000FFFE0606060606060606060606060606E6
:10597000060606FFFFFFFF060606060606060606E3
:10598000060606060606060606FFFFFFFF070200DC
:10599000000000000000000000000000000000FF08
:1059A000FFFF0000000000000000000000000000F9
:1059B000000000FFFFFFFF000000000000000000EB
:1059C000000000000000000000FFFFFFFF000000DB
:1059D000000000000000000000000000000000FFC8
:1059E000FFFF181818181818181818181818181869
:1059F000181818FFFFFFFF1818181818181818188B
:105A0000181818181818181818FFFFFFFF000000C2
:105A10000000000000000000000000000000020183
:105A20000100000000000000000000000000000075
:105A3000000000FFFFFFFF0000000000000000006A
:105A40000000000000000000000101000000000054
:105A50000000000000000000000000000000000046
:105A60000000000000000000000000000000000036
:105A7000000000FFFFFFFF0000000000000000002A
:105A80000000000000000000000000000000000016
:105A90000000000000000000000000000000000006
:105AA00000000000000000000000000000000000F6
:105AB0000000001F1F0F0F0000000000000000008A
:105AC00000000000000000000000000000000000D6
:105AD0000000000000000000F85A0008000000204C
